{
  "transactions": [
    {
      "hash": "0xb4c84d91d16b6e0dc7b40935bace8fe4f9a923a77d881e14fe0cc4f6e010d2c8",
      "transactionType": "CREATE",
      "contractName": "MockToken",
      "contractAddress": "0xC53E7008fE026Ab5871b06C42AD5E2086Ccb3dFd",
      "function": null,
      "arguments": [
        "0x6d1206D66faA79e9FBd249B48Aa55509071514a1",
        "\"GOMBLAST\"",
        "\"$GBLST\"",
        "18"
      ],
      "transaction": {
        "type": "0x02",
        "from": "0x6d1206d66faa79e9fbd249b48aa55509071514a1",
        "gas": "0x170cc4",
        "value": "0x0",
        "data": "0x6101806040523480156200001257600080fd5b506040516200185738038062001857833981016040819052620000359162000317565b838380604051806040016040528060018152602001603160f81b815250868681600390816200006591906200044c565b5060046200007482826200044c565b5062000086915083905060056200017c565b61012052620000978160066200017c565b61014052815160208084019190912060e052815190820120610100524660a0526200012560e05161010051604080517f8b73c3c69bb8fe3d512ecc4cf759cc79239f7b179b0ffacaa9a75d522b39400f60208201529081019290925260608201524660808201523060a082015260009060c00160405160208183030381529060405280519060200120905090565b60805250503060c052506001600160a01b0381166200015f57604051631e4fbdf760e01b8152600060048201526024015b60405180910390fd5b6200016a81620001b5565b5060ff16610160525062000572915050565b60006020835110156200019c57620001948362000207565b9050620001af565b81620001a984826200044c565b5060ff90505b92915050565b600880546001600160a01b038381166001600160a01b0319831681179093556040519116919082907f8be0079c531659141344cd1fd0a4f28419497f9722a3daafe3b4186f6b6457e090600090a35050565b600080829050601f8151111562000235578260405163305a27a960e01b815260040162000156919062000518565b805162000242826200054d565b179392505050565b634e487b7160e01b600052604160045260246000fd5b60005b838110156200027d57818101518382015260200162000263565b50506000910152565b600082601f8301126200029857600080fd5b81516001600160401b0380821115620002b557620002b56200024a565b604051601f8301601f19908116603f01168101908282118183101715620002e057620002e06200024a565b81604052838152866020858801011115620002fa57600080fd5b6200030d84602083016020890162000260565b9695505050505050565b600080600080608085870312156200032e57600080fd5b84516001600160a01b03811681146200034657600080fd5b60208601519094506001600160401b03808211156200036457600080fd5b620003728883890162000286565b945060408701519150808211156200038957600080fd5b50620003988782880162000286565b925050606085015160ff81168114620003b057600080fd5b939692955090935050565b600181811c90821680620003d057607f821691505b602082108103620003f157634e487b7160e01b600052602260045260246000fd5b50919050565b601f82111562000447576000816000526020600020601f850160051c81016020861015620004225750805b601f850160051c820191505b8181101562000443578281556001016200042e565b5050505b505050565b81516001600160401b038111156200046857620004686200024a565b6200048081620004798454620003bb565b84620003f7565b602080601f831160018114620004b857600084156200049f5750858301515b600019600386901b1c1916600185901b17855562000443565b600085815260208120601f198616915b82811015620004e957888601518255948401946001909101908401620004c8565b5085821015620005085787850151600019600388901b60f8161c191681555b5050505050600190811b01905550565b60208152600082518060208401526200053981604085016020870162000260565b601f01601f19169190910160400192915050565b80516020808301519190811015620003f15760001960209190910360031b1b16919050565b60805160a05160c05160e0516101005161012051610140516101605161127f620005d8600039600061018d0152600061099c0152600061096f0152600061083101526000610809015260006107640152600061078e015260006107b8015261127f6000f3fe608060405234801561001057600080fd5b506004361061011b5760003560e01c8063715018a6116100b257806395d89b4111610081578063d505accf11610066578063d505accf14610269578063dd62ed3e1461027c578063f2fde38b146102b557600080fd5b806395d89b411461024e578063a9059cbb1461025657600080fd5b8063715018a6146101fd5780637ecebe001461020557806384b0196e146102185780638da5cb5b1461023357600080fd5b8063313ce567116100ee578063313ce567146101865780633644e515146101b757806340c10f19146101bf57806370a08231146101d457600080fd5b806306fdde0314610120578063095ea7b31461013e57806318160ddd1461016157806323b872dd14610173575b600080fd5b6101286102c8565b6040516101359190610fc6565b60405180910390f35b61015161014c366004610ffc565b61035a565b6040519015158152602001610135565b6002545b604051908152602001610135565b610151610181366004611026565b610374565b60405160ff7f0000000000000000000000000000000000000000000000000000000000000000168152602001610135565b610165610398565b6101d26101cd366004610ffc565b6103a7565b005b6101656101e2366004611062565b6001600160a01b031660009081526020819052604090205490565b6101d26103bd565b610165610213366004611062565b6103d1565b6102206103ef565b604051610135979695949392919061107d565b6008546040516001600160a01b039091168152602001610135565b610128610451565b610151610264366004610ffc565b610460565b6101d2610277366004611132565b61046e565b61016561028a3660046111a5565b6001600160a01b03918216600090815260016020908152604080832093909416825291909152205490565b6101d26102c3366004611062565b6105df565b6060600380546102d7906111d8565b80601f0160208091040260200160405190810160405280929190818152602001828054610303906111d8565b80156103505780601f1061032557610100808354040283529160200191610350565b820191906000526020600020905b81548152906001019060200180831161033357829003601f168201915b5050505050905090565b600033610368818585610636565b60019150505b92915050565b600033610382858285610648565b61038d8585856106df565b506001949350505050565b60006103a2610757565b905090565b6103af610882565b6103b982826108c8565b5050565b6103c5610882565b6103cf60006108fe565b565b6001600160a01b03811660009081526007602052604081205461036e565b600060608060008060006060610403610968565b61040b610995565b604080516000808252602082019092527f0f000000000000000000000000000000000000000000000000000000000000009b939a50919850469750309650945092509050565b6060600480546102d7906111d8565b6000336103688185856106df565b834211156104b0576040517f62791302000000000000000000000000000000000000000000000000000000008152600481018590526024015b60405180910390fd5b60007f6e71edae12b1b97f4d1f60370fef10105fa2faae0126114a169c64845d6126c98888886104fd8c6001600160a01b0316600090815260076020526040902080546001810190915590565b6040805160208101969096526001600160a01b0394851690860152929091166060840152608083015260a082015260c0810186905260e0016040516020818303038152906040528051906020012090506000610558826109c2565b9050600061056882878787610a0a565b9050896001600160a01b0316816001600160a01b0316146105c8576040517f4b800e460000000000000000000000000000000000000000000000000000000081526001600160a01b0380831660048301528b1660248201526044016104a7565b6105d38a8a8a610636565b50505050505050505050565b6105e7610882565b6001600160a01b03811661062a576040517f1e4fbdf7000000000000000000000000000000000000000000000000000000008152600060048201526024016104a7565b610633816108fe565b50565b6106438383836001610a38565b505050565b6001600160a01b0383811660009081526001602090815260408083209386168352929052205460001981146106d957818110156106ca576040517ffb8f41b20000000000000000000000000000000000000000000000000000000081526001600160a01b038416600482015260248101829052604481018390526064016104a7565b6106d984848484036000610a38565b50505050565b6001600160a01b038316610722576040517f96c6fd1e000000000000000000000000000000000000000000000000000000008152600060048201526024016104a7565b6001600160a01b03821661074c5760405163ec442f0560e01b8152600060048201526024016104a7565b610643838383610b3f565b6000306001600160a01b037f0000000000000000000000000000000000000000000000000000000000000000161480156107b057507f000000000000000000000000000000000000000000000000000000000000000046145b156107da57507f000000000000000000000000000000000000000000000000000000000000000090565b6103a2604080517f8b73c3c69bb8fe3d512ecc4cf759cc79239f7b179b0ffacaa9a75d522b39400f60208201527f0000000000000000000000000000000000000000000000000000000000000000918101919091527f000000000000000000000000000000000000000000000000000000000000000060608201524660808201523060a082015260009060c00160405160208183030381529060405280519060200120905090565b6008546001600160a01b031633146103cf576040517f118cdaa70000000000000000000000000000000000000000000000000000000081523360048201526024016104a7565b6001600160a01b0382166108f25760405163ec442f0560e01b8152600060048201526024016104a7565b6103b960008383610b3f565b600880546001600160a01b038381167fffffffffffffffffffffffff0000000000000000000000000000000000000000831681179093556040519116919082907f8be0079c531659141344cd1fd0a4f28419497f9722a3daafe3b4186f6b6457e090600090a35050565b60606103a27f00000000000000000000000000000000000000000000000000000000000000006005610c82565b60606103a27f00000000000000000000000000000000000000000000000000000000000000006006610c82565b600061036e6109cf610757565b836040517f19010000000000000000000000000000000000000000000000000000000000008152600281019290925260228201526042902090565b600080600080610a1c88888888610d2d565b925092509250610a2c8282610dfc565b50909695505050505050565b6001600160a01b038416610a7b576040517fe602df05000000000000000000000000000000000000000000000000000000008152600060048201526024016104a7565b6001600160a01b038316610abe576040517f94280d62000000000000000000000000000000000000000000000000000000008152600060048201526024016104a7565b6001600160a01b03808516600090815260016020908152604080832093871683529290522082905580156106d957826001600160a01b0316846001600160a01b03167f8c5be1e5ebec7d5bd14f71427d1e84f3dd0314c0f7b2291e5b200ac8c7c3b92584604051610b3191815260200190565b60405180910390a350505050565b6001600160a01b038316610b6a578060026000828254610b5f9190611212565b90915550610bf59050565b6001600160a01b03831660009081526020819052604090205481811015610bd6576040517fe450d38c0000000000000000000000000000000000000000000000000000000081526001600160a01b038516600482015260248101829052604481018390526064016104a7565b6001600160a01b03841660009081526020819052604090209082900390555b6001600160a01b038216610c1157600280548290039055610c30565b6001600160a01b03821660009081526020819052604090208054820190555b816001600160a01b0316836001600160a01b03167fddf252ad1be2c89b69c2b068fc378daa952ba7f163c4a11628f55a4df523b3ef83604051610c7591815260200190565b60405180910390a3505050565b606060ff8314610c9c57610c9583610f00565b905061036e565b818054610ca8906111d8565b80601f0160208091040260200160405190810160405280929190818152602001828054610cd4906111d8565b8015610d215780601f10610cf657610100808354040283529160200191610d21565b820191906000526020600020905b815481529060010190602001808311610d0457829003601f168201915b5050505050905061036e565b600080807f7fffffffffffffffffffffffffffffff5d576e7357a4501ddfe92f46681b20a0841115610d685750600091506003905082610df2565b604080516000808252602082018084528a905260ff891692820192909252606081018790526080810186905260019060a0016020604051602081039080840390855afa158015610dbc573d6000803e3d6000fd5b5050604051601f1901519150506001600160a01b038116610de857506000925060019150829050610df2565b9250600091508190505b9450945094915050565b6000826003811115610e1057610e10611233565b03610e19575050565b6001826003811115610e2d57610e2d611233565b03610e64576040517ff645eedf00000000000000000000000000000000000000000000000000000000815260040160405180910390fd5b6002826003811115610e7857610e78611233565b03610eb2576040517ffce698f7000000000000000000000000000000000000000000000000000000008152600481018290526024016104a7565b6003826003811115610ec657610ec6611233565b036103b9576040517fd78bce0c000000000000000000000000000000000000000000000000000000008152600481018290526024016104a7565b60606000610f0d83610f3f565b604080516020808252818301909252919250600091906020820181803683375050509182525060208101929092525090565b600060ff8216601f81111561036e576040517fb3512b0c00000000000000000000000000000000000000000000000000000000815260040160405180910390fd5b6000815180845260005b81811015610fa657602081850181015186830182015201610f8a565b506000602082860101526020601f19601f83011685010191505092915050565b602081526000610fd96020830184610f80565b9392505050565b80356001600160a01b0381168114610ff757600080fd5b919050565b6000806040838503121561100f57600080fd5b61101883610fe0565b946020939093013593505050565b60008060006060848603121561103b57600080fd5b61104484610fe0565b925061105260208501610fe0565b9150604084013590509250925092565b60006020828403121561107457600080fd5b610fd982610fe0565b7fff00000000000000000000000000000000000000000000000000000000000000881681526000602060e060208401526110ba60e084018a610f80565b83810360408501526110cc818a610f80565b606085018990526001600160a01b038816608086015260a0850187905284810360c08601528551808252602080880193509091019060005b8181101561112057835183529284019291840191600101611104565b50909c9b505050505050505050505050565b600080600080600080600060e0888a03121561114d57600080fd5b61115688610fe0565b965061116460208901610fe0565b95506040880135945060608801359350608088013560ff8116811461118857600080fd5b9699959850939692959460a0840135945060c09093013592915050565b600080604083850312156111b857600080fd5b6111c183610fe0565b91506111cf60208401610fe0565b90509250929050565b600181811c908216806111ec57607f821691505b60208210810361120c57634e487b7160e01b600052602260045260246000fd5b50919050565b8082018082111561036e57634e487b7160e01b600052601160045260246000fd5b634e487b7160e01b600052602160045260246000fdfea2646970667358221220eb5131228c093fff5889d4b7ef385fe7f8748014555b69950450c7e7337427c364736f6c634300081700330000000000000000000000006d1206d66faa79e9fbd249b48aa55509071514a1000000000000000000000000000000000000000000000000000000000000008000000000000000000000000000000000000000000000000000000000000000c000000000000000000000000000000000000000000000000000000000000000120000000000000000000000000000000000000000000000000000000000000008474f4d424c41535400000000000000000000000000000000000000000000000000000000000000000000000000000000000000000000000000000000000000062447424c53540000000000000000000000000000000000000000000000000000",
        "nonce": "0x5",
        "accessList": []
      },
      "additionalContracts": [],
      "isFixedGasLimit": false
    },
    {
      "hash": "0x7b3764bc1e06d4441a8ff0550a14fb898e757f0f8ccdb5e453dfb440a82fd91e",
      "transactionType": "CREATE",
      "contractName": "MockToken",
      "contractAddress": "0x24f6A729B094854F334162309485A0082B05DC4a",
      "function": null,
      "arguments": [
        "0x6d1206D66faA79e9FBd249B48Aa55509071514a1",
        "\"USD Tether\"",
        "\"USDT\"",
        "6"
      ],
      "transaction": {
        "type": "0x02",
        "from": "0x6d1206d66faa79e9fbd249b48aa55509071514a1",
        "gas": "0x170cc4",
        "value": "0x0",
        "data": "0x6101806040523480156200001257600080fd5b506040516200185738038062001857833981016040819052620000359162000317565b838380604051806040016040528060018152602001603160f81b815250868681600390816200006591906200044c565b5060046200007482826200044c565b5062000086915083905060056200017c565b61012052620000978160066200017c565b61014052815160208084019190912060e052815190820120610100524660a0526200012560e05161010051604080517f8b73c3c69bb8fe3d512ecc4cf759cc79239f7b179b0ffacaa9a75d522b39400f60208201529081019290925260608201524660808201523060a082015260009060c00160405160208183030381529060405280519060200120905090565b60805250503060c052506001600160a01b0381166200015f57604051631e4fbdf760e01b8152600060048201526024015b60405180910390fd5b6200016a81620001b5565b5060ff16610160525062000572915050565b60006020835110156200019c57620001948362000207565b9050620001af565b81620001a984826200044c565b5060ff90505b92915050565b600880546001600160a01b038381166001600160a01b0319831681179093556040519116919082907f8be0079c531659141344cd1fd0a4f28419497f9722a3daafe3b4186f6b6457e090600090a35050565b600080829050601f8151111562000235578260405163305a27a960e01b815260040162000156919062000518565b805162000242826200054d565b179392505050565b634e487b7160e01b600052604160045260246000fd5b60005b838110156200027d57818101518382015260200162000263565b50506000910152565b600082601f8301126200029857600080fd5b81516001600160401b0380821115620002b557620002b56200024a565b604051601f8301601f19908116603f01168101908282118183101715620002e057620002e06200024a565b81604052838152866020858801011115620002fa57600080fd5b6200030d84602083016020890162000260565b9695505050505050565b600080600080608085870312156200032e57600080fd5b84516001600160a01b03811681146200034657600080fd5b60208601519094506001600160401b03808211156200036457600080fd5b620003728883890162000286565b945060408701519150808211156200038957600080fd5b50620003988782880162000286565b925050606085015160ff81168114620003b057600080fd5b939692955090935050565b600181811c90821680620003d057607f821691505b602082108103620003f157634e487b7160e01b600052602260045260246000fd5b50919050565b601f82111562000447576000816000526020600020601f850160051c81016020861015620004225750805b601f850160051c820191505b8181101562000443578281556001016200042e565b5050505b505050565b81516001600160401b038111156200046857620004686200024a565b6200048081620004798454620003bb565b84620003f7565b602080601f831160018114620004b857600084156200049f5750858301515b600019600386901b1c1916600185901b17855562000443565b600085815260208120601f198616915b82811015620004e957888601518255948401946001909101908401620004c8565b5085821015620005085787850151600019600388901b60f8161c191681555b5050505050600190811b01905550565b60208152600082518060208401526200053981604085016020870162000260565b601f01601f19169190910160400192915050565b80516020808301519190811015620003f15760001960209190910360031b1b16919050565b60805160a05160c05160e0516101005161012051610140516101605161127f620005d8600039600061018d0152600061099c0152600061096f0152600061083101526000610809015260006107640152600061078e015260006107b8015261127f6000f3fe608060405234801561001057600080fd5b506004361061011b5760003560e01c8063715018a6116100b257806395d89b4111610081578063d505accf11610066578063d505accf14610269578063dd62ed3e1461027c578063f2fde38b146102b557600080fd5b806395d89b411461024e578063a9059cbb1461025657600080fd5b8063715018a6146101fd5780637ecebe001461020557806384b0196e146102185780638da5cb5b1461023357600080fd5b8063313ce567116100ee578063313ce567146101865780633644e515146101b757806340c10f19146101bf57806370a08231146101d457600080fd5b806306fdde0314610120578063095ea7b31461013e57806318160ddd1461016157806323b872dd14610173575b600080fd5b6101286102c8565b6040516101359190610fc6565b60405180910390f35b61015161014c366004610ffc565b61035a565b6040519015158152602001610135565b6002545b604051908152602001610135565b610151610181366004611026565b610374565b60405160ff7f0000000000000000000000000000000000000000000000000000000000000000168152602001610135565b610165610398565b6101d26101cd366004610ffc565b6103a7565b005b6101656101e2366004611062565b6001600160a01b031660009081526020819052604090205490565b6101d26103bd565b610165610213366004611062565b6103d1565b6102206103ef565b604051610135979695949392919061107d565b6008546040516001600160a01b039091168152602001610135565b610128610451565b610151610264366004610ffc565b610460565b6101d2610277366004611132565b61046e565b61016561028a3660046111a5565b6001600160a01b03918216600090815260016020908152604080832093909416825291909152205490565b6101d26102c3366004611062565b6105df565b6060600380546102d7906111d8565b80601f0160208091040260200160405190810160405280929190818152602001828054610303906111d8565b80156103505780601f1061032557610100808354040283529160200191610350565b820191906000526020600020905b81548152906001019060200180831161033357829003601f168201915b5050505050905090565b600033610368818585610636565b60019150505b92915050565b600033610382858285610648565b61038d8585856106df565b506001949350505050565b60006103a2610757565b905090565b6103af610882565b6103b982826108c8565b5050565b6103c5610882565b6103cf60006108fe565b565b6001600160a01b03811660009081526007602052604081205461036e565b600060608060008060006060610403610968565b61040b610995565b604080516000808252602082019092527f0f000000000000000000000000000000000000000000000000000000000000009b939a50919850469750309650945092509050565b6060600480546102d7906111d8565b6000336103688185856106df565b834211156104b0576040517f62791302000000000000000000000000000000000000000000000000000000008152600481018590526024015b60405180910390fd5b60007f6e71edae12b1b97f4d1f60370fef10105fa2faae0126114a169c64845d6126c98888886104fd8c6001600160a01b0316600090815260076020526040902080546001810190915590565b6040805160208101969096526001600160a01b0394851690860152929091166060840152608083015260a082015260c0810186905260e0016040516020818303038152906040528051906020012090506000610558826109c2565b9050600061056882878787610a0a565b9050896001600160a01b0316816001600160a01b0316146105c8576040517f4b800e460000000000000000000000000000000000000000000000000000000081526001600160a01b0380831660048301528b1660248201526044016104a7565b6105d38a8a8a610636565b50505050505050505050565b6105e7610882565b6001600160a01b03811661062a576040517f1e4fbdf7000000000000000000000000000000000000000000000000000000008152600060048201526024016104a7565b610633816108fe565b50565b6106438383836001610a38565b505050565b6001600160a01b0383811660009081526001602090815260408083209386168352929052205460001981146106d957818110156106ca576040517ffb8f41b20000000000000000000000000000000000000000000000000000000081526001600160a01b038416600482015260248101829052604481018390526064016104a7565b6106d984848484036000610a38565b50505050565b6001600160a01b038316610722576040517f96c6fd1e000000000000000000000000000000000000000000000000000000008152600060048201526024016104a7565b6001600160a01b03821661074c5760405163ec442f0560e01b8152600060048201526024016104a7565b610643838383610b3f565b6000306001600160a01b037f0000000000000000000000000000000000000000000000000000000000000000161480156107b057507f000000000000000000000000000000000000000000000000000000000000000046145b156107da57507f000000000000000000000000000000000000000000000000000000000000000090565b6103a2604080517f8b73c3c69bb8fe3d512ecc4cf759cc79239f7b179b0ffacaa9a75d522b39400f60208201527f0000000000000000000000000000000000000000000000000000000000000000918101919091527f000000000000000000000000000000000000000000000000000000000000000060608201524660808201523060a082015260009060c00160405160208183030381529060405280519060200120905090565b6008546001600160a01b031633146103cf576040517f118cdaa70000000000000000000000000000000000000000000000000000000081523360048201526024016104a7565b6001600160a01b0382166108f25760405163ec442f0560e01b8152600060048201526024016104a7565b6103b960008383610b3f565b600880546001600160a01b038381167fffffffffffffffffffffffff0000000000000000000000000000000000000000831681179093556040519116919082907f8be0079c531659141344cd1fd0a4f28419497f9722a3daafe3b4186f6b6457e090600090a35050565b60606103a27f00000000000000000000000000000000000000000000000000000000000000006005610c82565b60606103a27f00000000000000000000000000000000000000000000000000000000000000006006610c82565b600061036e6109cf610757565b836040517f19010000000000000000000000000000000000000000000000000000000000008152600281019290925260228201526042902090565b600080600080610a1c88888888610d2d565b925092509250610a2c8282610dfc565b50909695505050505050565b6001600160a01b038416610a7b576040517fe602df05000000000000000000000000000000000000000000000000000000008152600060048201526024016104a7565b6001600160a01b038316610abe576040517f94280d62000000000000000000000000000000000000000000000000000000008152600060048201526024016104a7565b6001600160a01b03808516600090815260016020908152604080832093871683529290522082905580156106d957826001600160a01b0316846001600160a01b03167f8c5be1e5ebec7d5bd14f71427d1e84f3dd0314c0f7b2291e5b200ac8c7c3b92584604051610b3191815260200190565b60405180910390a350505050565b6001600160a01b038316610b6a578060026000828254610b5f9190611212565b90915550610bf59050565b6001600160a01b03831660009081526020819052604090205481811015610bd6576040517fe450d38c0000000000000000000000000000000000000000000000000000000081526001600160a01b038516600482015260248101829052604481018390526064016104a7565b6001600160a01b03841660009081526020819052604090209082900390555b6001600160a01b038216610c1157600280548290039055610c30565b6001600160a01b03821660009081526020819052604090208054820190555b816001600160a01b0316836001600160a01b03167fddf252ad1be2c89b69c2b068fc378daa952ba7f163c4a11628f55a4df523b3ef83604051610c7591815260200190565b60405180910390a3505050565b606060ff8314610c9c57610c9583610f00565b905061036e565b818054610ca8906111d8565b80601f0160208091040260200160405190810160405280929190818152602001828054610cd4906111d8565b8015610d215780601f10610cf657610100808354040283529160200191610d21565b820191906000526020600020905b815481529060010190602001808311610d0457829003601f168201915b5050505050905061036e565b600080807f7fffffffffffffffffffffffffffffff5d576e7357a4501ddfe92f46681b20a0841115610d685750600091506003905082610df2565b604080516000808252602082018084528a905260ff891692820192909252606081018790526080810186905260019060a0016020604051602081039080840390855afa158015610dbc573d6000803e3d6000fd5b5050604051601f1901519150506001600160a01b038116610de857506000925060019150829050610df2565b9250600091508190505b9450945094915050565b6000826003811115610e1057610e10611233565b03610e19575050565b6001826003811115610e2d57610e2d611233565b03610e64576040517ff645eedf00000000000000000000000000000000000000000000000000000000815260040160405180910390fd5b6002826003811115610e7857610e78611233565b03610eb2576040517ffce698f7000000000000000000000000000000000000000000000000000000008152600481018290526024016104a7565b6003826003811115610ec657610ec6611233565b036103b9576040517fd78bce0c000000000000000000000000000000000000000000000000000000008152600481018290526024016104a7565b60606000610f0d83610f3f565b604080516020808252818301909252919250600091906020820181803683375050509182525060208101929092525090565b600060ff8216601f81111561036e576040517fb3512b0c00000000000000000000000000000000000000000000000000000000815260040160405180910390fd5b6000815180845260005b81811015610fa657602081850181015186830182015201610f8a565b506000602082860101526020601f19601f83011685010191505092915050565b602081526000610fd96020830184610f80565b9392505050565b80356001600160a01b0381168114610ff757600080fd5b919050565b6000806040838503121561100f57600080fd5b61101883610fe0565b946020939093013593505050565b60008060006060848603121561103b57600080fd5b61104484610fe0565b925061105260208501610fe0565b9150604084013590509250925092565b60006020828403121561107457600080fd5b610fd982610fe0565b7fff00000000000000000000000000000000000000000000000000000000000000881681526000602060e060208401526110ba60e084018a610f80565b83810360408501526110cc818a610f80565b606085018990526001600160a01b038816608086015260a0850187905284810360c08601528551808252602080880193509091019060005b8181101561112057835183529284019291840191600101611104565b50909c9b505050505050505050505050565b600080600080600080600060e0888a03121561114d57600080fd5b61115688610fe0565b965061116460208901610fe0565b95506040880135945060608801359350608088013560ff8116811461118857600080fd5b9699959850939692959460a0840135945060c09093013592915050565b600080604083850312156111b857600080fd5b6111c183610fe0565b91506111cf60208401610fe0565b90509250929050565b600181811c908216806111ec57607f821691505b60208210810361120c57634e487b7160e01b600052602260045260246000fd5b50919050565b8082018082111561036e57634e487b7160e01b600052601160045260246000fd5b634e487b7160e01b600052602160045260246000fdfea2646970667358221220eb5131228c093fff5889d4b7ef385fe7f8748014555b69950450c7e7337427c364736f6c634300081700330000000000000000000000006d1206d66faa79e9fbd249b48aa55509071514a1000000000000000000000000000000000000000000000000000000000000008000000000000000000000000000000000000000000000000000000000000000c00000000000000000000000000000000000000000000000000000000000000006000000000000000000000000000000000000000000000000000000000000000a555344205465746865720000000000000000000000000000000000000000000000000000000000000000000000000000000000000000000000000000000000045553445400000000000000000000000000000000000000000000000000000000",
        "nonce": "0x6",
        "accessList": []
      },
      "additionalContracts": [],
      "isFixedGasLimit": false
    },
    {
      "hash": "0x211fa265c9d97a494702f0e7fd58c78faa9b82281ee9a284d275654eabaa3141",
      "transactionType": "CREATE",
      "contractName": "MockSwapRouter",
      "contractAddress": "0x9be14296C60CDB491E341dB4192D165690D5226f",
      "function": null,
      "arguments": [
        "0x6d1206D66faA79e9FBd249B48Aa55509071514a1"
      ],
      "transaction": {
        "type": "0x02",
        "from": "0x6d1206d66faa79e9fbd249b48aa55509071514a1",
        "gas": "0xc5909",
        "value": "0x0",
        "data": "0x608060405234801561001057600080fd5b50604051610ad8380380610ad883398101604081905261002f916100be565b806001600160a01b03811661005e57604051631e4fbdf760e01b81526000600482015260240160405180910390fd5b6100678161006e565b50506100ee565b600080546001600160a01b038381166001600160a01b0319831681178455604051919092169283917f8be0079c531659141344cd1fd0a4f28419497f9722a3daafe3b4186f6b6457e09190a35050565b6000602082840312156100d057600080fd5b81516001600160a01b03811681146100e757600080fd5b9392505050565b6109db806100fd6000396000f3fe608060405234801561001057600080fd5b50600436106100725760003560e01c80638da5cb5b116100505780638da5cb5b146100d2578063f2fde38b146100ed578063fe0291561461010057600080fd5b8063015ab81714610077578063715018a61461008c57806382ce2b5714610094575b600080fd5b61008a610085366004610723565b610113565b005b61008a610147565b6100bf6100a236600461075f565b600160209081526000928352604080842090915290825290205481565b6040519081526020015b60405180910390f35b6000546040516001600160a01b0390911681526020016100c9565b61008a6100fb366004610792565b61015b565b6100bf61010e3660046107ad565b6101b7565b61011b61039f565b6001600160a01b0392831660009081526001602090815260408083209490951682529290925291902055565b61014f61039f565b61015960006103e5565b565b61016361039f565b6001600160a01b0381166101ab576040517f1e4fbdf7000000000000000000000000000000000000000000000000000000008152600060048201526024015b60405180910390fd5b6101b4816103e5565b50565b60006101ce6001600160a01b03861633308661044d565b846001600160a01b031663313ce5676040518163ffffffff1660e01b8152600401602060405180830381865afa15801561020c573d6000803e3d6000fd5b505050506040513d601f19601f8201168201806040525081019061023091906107ef565b61023b90600a61090c565b6001600160a01b038087166000908152600160209081526040808320938916808452938252918290205482517f313ce5670000000000000000000000000000000000000000000000000000000081529251670de0b6b3a7640000949193919263313ce56792600480820193918290030181865afa1580156102c0573d6000803e3d6000fd5b505050506040513d601f19601f820116820180604052508101906102e491906107ef565b6102ef90600a61090c565b6102f9908761091b565b610303919061091b565b61030d9190610932565b6103179190610932565b905081811015610383576040517f08c379a000000000000000000000000000000000000000000000000000000000815260206004820152600760248201527f6d696e206f75740000000000000000000000000000000000000000000000000060448201526064016101a2565b6103976001600160a01b03851633836104cf565b949350505050565b6000546001600160a01b03163314610159576040517f118cdaa70000000000000000000000000000000000000000000000000000000081523360048201526024016101a2565b600080546001600160a01b038381167fffffffffffffffffffffffff0000000000000000000000000000000000000000831681178455604051919092169283917f8be0079c531659141344cd1fd0a4f28419497f9722a3daafe3b4186f6b6457e09190a35050565b6040516001600160a01b0384811660248301528381166044830152606482018390526104c99186918216906323b872dd906084015b604051602081830303815290604052915060e01b6020820180517bffffffffffffffffffffffffffffffffffffffffffffffffffffffff8381831617835250505050610505565b50505050565b6040516001600160a01b0383811660248301526044820183905261050091859182169063a9059cbb90606401610482565b505050565b600061051a6001600160a01b03841683610581565b9050805160001415801561053f57508080602001905181019061053d9190610954565b155b15610500576040517f5274afe70000000000000000000000000000000000000000000000000000000081526001600160a01b03841660048201526024016101a2565b606061058f83836000610598565b90505b92915050565b6060814710156105d6576040517fcd7860590000000000000000000000000000000000000000000000000000000081523060048201526024016101a2565b600080856001600160a01b031684866040516105f29190610976565b60006040518083038185875af1925050503d806000811461062f576040519150601f19603f3d011682016040523d82523d6000602084013e610634565b606091505b5091509150610644868383610650565b925050505b9392505050565b60608261066557610660826106c5565b610649565b815115801561067c57506001600160a01b0384163b155b156106be576040517f9996b3150000000000000000000000000000000000000000000000000000000081526001600160a01b03851660048201526024016101a2565b5080610649565b8051156106d55780518082602001fd5b6040517f1425ea4200000000000000000000000000000000000000000000000000000000815260040160405180910390fd5b80356001600160a01b038116811461071e57600080fd5b919050565b60008060006060848603121561073857600080fd5b61074184610707565b925061074f60208501610707565b9150604084013590509250925092565b6000806040838503121561077257600080fd5b61077b83610707565b915061078960208401610707565b90509250929050565b6000602082840312156107a457600080fd5b61058f82610707565b600080600080608085870312156107c357600080fd5b6107cc85610707565b93506107da60208601610707565b93969395505050506040820135916060013590565b60006020828403121561080157600080fd5b815160ff8116811461064957600080fd5b634e487b7160e01b600052601160045260246000fd5b600181815b8085111561086357816000190482111561084957610849610812565b8085161561085657918102915b93841c939080029061082d565b509250929050565b60008261087a57506001610592565b8161088757506000610592565b816001811461089d57600281146108a7576108c3565b6001915050610592565b60ff8411156108b8576108b8610812565b50506001821b610592565b5060208310610133831016604e8410600b84101617156108e6575081810a610592565b6108f08383610828565b806000190482111561090457610904610812565b029392505050565b600061058f60ff84168361086b565b808202811582820484141761059257610592610812565b60008261094f57634e487b7160e01b600052601260045260246000fd5b500490565b60006020828403121561096657600080fd5b8151801515811461064957600080fd5b6000825160005b81811015610997576020818601810151858301520161097d565b50600092019182525091905056fea264697066735822122017355c55e04ba5329b0f59b5da4609eae423812a58329828890b3de4220d037f64736f6c634300081700330000000000000000000000006d1206d66faa79e9fbd249b48aa55509071514a1",
        "nonce": "0x7",
        "accessList": []
      },
      "additionalContracts": [],
      "isFixedGasLimit": false
    },
    {
      "hash": "0x7d91744b13eb7005059eedf617ccb7b1be5cdbcde969f7eb19d151d8da3e9dd6",
      "transactionType": "CALL",
      "contractName": "src/MockSwapRouter.sol:MockSwapRouter",
      "contractAddress": "0x9be14296C60CDB491E341dB4192D165690D5226f",
      "function": "setSwapRate(address,address,uint256)",
      "arguments": [
        "0x24f6A729B094854F334162309485A0082B05DC4a",
        "0xC53E7008fE026Ab5871b06C42AD5E2086Ccb3dFd",
        "10000000000000000000"
      ],
      "transaction": {
        "type": "0x02",
        "from": "0x6d1206d66faa79e9fbd249b48aa55509071514a1",
        "to": "0x9be14296c60cdb491e341db4192d165690d5226f",
        "gas": "0xfce1",
        "value": "0x0",
        "data": "0x015ab81700000000000000000000000024f6a729b094854f334162309485a0082b05dc4a000000000000000000000000c53e7008fe026ab5871b06c42ad5e2086ccb3dfd0000000000000000000000000000000000000000000000008ac7230489e80000",
        "nonce": "0x8",
        "accessList": []
      },
      "additionalContracts": [],
      "isFixedGasLimit": false
    },
    {
      "hash": "0xd5daca5cab971627e92cb75915ef3c72bd2bc5c9eae6054b023938e217e8b230",
      "transactionType": "CALL",
      "contractName": "src/MockSwapRouter.sol:MockSwapRouter",
      "contractAddress": "0x9be14296C60CDB491E341dB4192D165690D5226f",
      "function": "setSwapRate(address,address,uint256)",
      "arguments": [
        "0xC53E7008fE026Ab5871b06C42AD5E2086Ccb3dFd",
        "0x24f6A729B094854F334162309485A0082B05DC4a",
        "100000000000000000"
      ],
      "transaction": {
        "type": "0x02",
        "from": "0x6d1206d66faa79e9fbd249b48aa55509071514a1",
        "to": "0x9be14296c60cdb491e341db4192d165690d5226f",
        "gas": "0xfce1",
        "value": "0x0",
        "data": "0x015ab817000000000000000000000000c53e7008fe026ab5871b06c42ad5e2086ccb3dfd00000000000000000000000024f6a729b094854f334162309485a0082b05dc4a000000000000000000000000000000000000000000000000016345785d8a0000",
        "nonce": "0x9",
        "accessList": []
      },
      "additionalContracts": [],
      "isFixedGasLimit": false
    },
    {
      "hash": "0x1fd1980c3392e2d30b686934472ad2d4f8fafc146809a0be322d6a139498df44",
      "transactionType": "CREATE",
      "contractName": "MockRandomOracle",
      "contractAddress": "0x7acbc214042016F6fbdE1c3bC37a4D6b4808B19e",
      "function": null,
      "arguments": [
        "0x6d1206D66faA79e9FBd249B48Aa55509071514a1"
      ],
      "transaction": {
        "type": "0x02",
        "from": "0x6d1206d66faa79e9fbd249b48aa55509071514a1",
        "gas": "0x49d8c",
        "value": "0x0",
        "data": "0x608060405234801561001057600080fd5b506040516103c03803806103c083398101604081905261002f916100be565b806001600160a01b03811661005e57604051631e4fbdf760e01b81526000600482015260240160405180910390fd5b6100678161006e565b50506100ee565b600080546001600160a01b038381166001600160a01b0319831681178455604051919092169283917f8be0079c531659141344cd1fd0a4f28419497f9722a3daafe3b4186f6b6457e09190a35050565b6000602082840312156100d057600080fd5b81516001600160a01b03811681146100e757600080fd5b9392505050565b6102c3806100fd6000396000f3fe608060405234801561001057600080fd5b50600436106100675760003560e01c80638da5cb5b116100505780638da5cb5b14610089578063b37217a4146100a9578063f2fde38b146100d757600080fd5b80635da4fabc1461006c578063715018a614610081575b600080fd5b61007f61007a366004610222565b6100ea565b005b61007f610104565b6000546040516001600160a01b0390911681526020015b60405180910390f35b6100c96100b7366004610244565b60009081526001602052604090205490565b6040519081526020016100a0565b61007f6100e536600461025d565b610118565b6100f2610174565b60009182526001602052604090912055565b61010c610174565b61011660006101ba565b565b610120610174565b6001600160a01b038116610168576040517f1e4fbdf7000000000000000000000000000000000000000000000000000000008152600060048201526024015b60405180910390fd5b610171816101ba565b50565b6000546001600160a01b03163314610116576040517f118cdaa700000000000000000000000000000000000000000000000000000000815233600482015260240161015f565b600080546001600160a01b038381167fffffffffffffffffffffffff0000000000000000000000000000000000000000831681178455604051919092169283917f8be0079c531659141344cd1fd0a4f28419497f9722a3daafe3b4186f6b6457e09190a35050565b6000806040838503121561023557600080fd5b50508035926020909101359150565b60006020828403121561025657600080fd5b5035919050565b60006020828403121561026f57600080fd5b81356001600160a01b038116811461028657600080fd5b939250505056fea2646970667358221220f9aa2e949703829be7289c13f8a6d90c4784886bb0f769a73ba20b37986c100a64736f6c634300081700330000000000000000000000006d1206d66faa79e9fbd249b48aa55509071514a1",
        "nonce": "0xa",
        "accessList": []
      },
      "additionalContracts": [],
      "isFixedGasLimit": false
    },
    {
      "hash": "0xe6bd25397b5db6ef82f1d30c26fdd930c2d598b414d30e3e48620a8d5b90f7ae",
      "transactionType": "CREATE",
      "contractName": "Distributor",
      "contractAddress": "0x129400290d9d20e2Ff951683DA847be7aeC57Be2",
      "function": null,
      "arguments": [
        "0x6d1206D66faA79e9FBd249B48Aa55509071514a1",
        "0xC53E7008fE026Ab5871b06C42AD5E2086Ccb3dFd",
        "0x9be14296C60CDB491E341dB4192D165690D5226f"
      ],
      "transaction": {
        "type": "0x02",
        "from": "0x6d1206d66faa79e9fbd249b48aa55509071514a1",
        "gas": "0x12b9c2",
        "value": "0x0",
        "data": "0x60c060405269d3c21bcecceda10000006002553480156200001f57600080fd5b50604051620010f4380380620010f483398101604081905262000042916200011b565b826001600160a01b0381166200007257604051631e4fbdf760e01b81526000600482015260240160405180910390fd5b6200007d8162000097565b506001600160a01b039182166080521660a052506200016f565b600180546001600160a01b0319169055620000b281620000b5565b50565b600080546001600160a01b038381166001600160a01b0319831681178455604051919092169283917f8be0079c531659141344cd1fd0a4f28419497f9722a3daafe3b4186f6b6457e09190a35050565b6001600160a01b0381168114620000b257600080fd5b6000806000606084860312156200013157600080fd5b83516200013e8162000105565b6020850151909350620001518162000105565b6040850151909250620001648162000105565b809150509250925092565b60805160a051610f35620001bf600039600081816101f70152818161066501526107de015260008181610299015281816102f4015281816106fa015281816107a501526108650152610f356000f3fe608060405234801561001057600080fd5b506004361061011b5760003560e01c80638da5cb5b116100b2578063e2c92a5211610081578063e6512a9d11610066578063e6512a9d14610278578063f2fde38b14610281578063f7c618c11461029457600080fd5b8063e2c92a5214610254578063e30c39781461026757600080fd5b80638da5cb5b146101ad578063b68d0a09146101d2578063c31c9c07146101f2578063c3c5a5471461021957600080fd5b80634420e486116100ee5780634420e4861461018157806353a3785b14610194578063715018a61461019d57806379ba5097146101a557600080fd5b80631e83409a146101205780632446cd38146101355780632ec2c24614610148578063402914f51461015b575b600080fd5b61013361012e366004610d66565b6102bb565b005b610133610143366004610d81565b610363565b610133610156366004610d66565b610414565b61016e610169366004610d66565b6104c2565b6040519081526020015b60405180910390f35b61013361018f366004610d66565b610518565b61016e60025481565b6101336105c3565b6101336105d7565b6000546001600160a01b03165b6040516001600160a01b039091168152602001610178565b61016e6101e0366004610d66565b60046020526000908152604090205481565b6101ba7f000000000000000000000000000000000000000000000000000000000000000081565b610244610227366004610d66565b6001600160a01b0316600090815260046020526040902054151590565b6040519015158152602001610178565b610133610262366004610ded565b610620565b6001546001600160a01b03166101ba565b61016e60035481565b61013361028f366004610d66565b610966565b6101ba7f000000000000000000000000000000000000000000000000000000000000000081565b60006102c6826104c2565b9050801561035f576002546001600160a01b0380841660009081526004602052604090209190915561031b907f00000000000000000000000000000000000000000000000000000000000000001683836109e4565b816001600160a01b03167f47cee97cb7acd717b3c0aa1435d004cd5b3c8c57d70dbceb4e4458bbd60e39d48260405161035691815260200190565b60405180910390a25b5050565b6040517fd505accf000000000000000000000000000000000000000000000000000000008152336004820152306024820152604481018790526064810185905260ff8416608482015260a4810183905260c481018290526001600160a01b0388169063d505accf9060e401600060405180830381600087803b1580156103e857600080fd5b505af11580156103fc573d6000803e3d6000fd5b5050505061040b878787610620565b50505050505050565b61041c610a5d565b6001600160a01b03811660009081526004602052604090205461046b576040517faba4733900000000000000000000000000000000000000000000000000000000815260040160405180910390fd5b610474816102bb565b6001600160a01b03811660008181526004602052604080822082905560038054600019019055517f1a9a87235a10fa2f6c7079baa2546a99fac817e63099fe89535f08b9aaa76af79190a250565b6001600160a01b0381166000908152600460205260408120546104e6576000610512565b6001600160a01b03821660009081526004602052604090205460025469d3c21bcecceda1000000919003045b92915050565b610520610a5d565b6001600160a01b03811660009081526004602052604090205415610570576040517f3a81d6fc00000000000000000000000000000000000000000000000000000000815260040160405180910390fd5b6002546001600160a01b03821660008181526004602052604080822093909355600380546001019055915190917feeda149c76076b34d4b9d8896c2f7efc0d33d1c7b53ea3c5db490d64613f603a91a250565b6105cb610a5d565b6105d56000610a8a565b565b60015433906001600160a01b031681146106145760405163118cdaa760e01b81526001600160a01b03821660048201526024015b60405180910390fd5b61061d81610a8a565b50565b6106356001600160a01b038416333085610ab0565b6040517f095ea7b30000000000000000000000000000000000000000000000000000000081526001600160a01b037f0000000000000000000000000000000000000000000000000000000000000000811660048301526024820184905284169063095ea7b3906044016020604051808303816000875af11580156106bd573d6000803e3d6000fd5b505050506040513d601f19601f820116820180604052508101906106e19190610e20565b506040516370a0823160e01b81523060048201526000907f00000000000000000000000000000000000000000000000000000000000000006001600160a01b0316906370a0823190602401602060405180830381865afa158015610749573d6000803e3d6000fd5b505050506040513d601f19601f8201168201806040525081019061076d9190610e42565b6040517ffe0291560000000000000000000000000000000000000000000000000000000081526001600160a01b0386811660048301527f00000000000000000000000000000000000000000000000000000000000000008116602483015260448201869052606482018590529192507f00000000000000000000000000000000000000000000000000000000000000009091169063fe029156906084016020604051808303816000875af1158015610829573d6000803e3d6000fd5b505050506040513d601f19601f8201168201806040525081019061084d9190610e42565b506040516370a0823160e01b815230600482015281907f00000000000000000000000000000000000000000000000000000000000000006001600160a01b0316906370a0823190602401602060405180830381865afa1580156108b4573d6000803e3d6000fd5b505050506040513d601f19601f820116820180604052508101906108d89190610e42565b6108e29190610e71565b6003549091506108fc69d3c21bcecceda100000083610e84565b6109069190610e9b565b600260008282546109179190610ebd565b909155505060408051848152602081018390526001600160a01b038616917f7b6bd1e44b882fc3c6db03de18818ba27f347f200076803dce3e72303b0ca716910160405180910390a250505050565b61096e610a5d565b600180546001600160a01b03831673ffffffffffffffffffffffffffffffffffffffff1990911681179091556109ac6000546001600160a01b031690565b6001600160a01b03167f38d16b8cac22d99fc7c124b9cd0de2d3fa1faef420bfe791d8c362d765e2270060405160405180910390a350565b6040516001600160a01b03838116602483015260448201839052610a5891859182169063a9059cbb906064015b604051602081830303815290604052915060e01b6020820180517bffffffffffffffffffffffffffffffffffffffffffffffffffffffff8381831617835250505050610aef565b505050565b6000546001600160a01b031633146105d55760405163118cdaa760e01b815233600482015260240161060b565b6001805473ffffffffffffffffffffffffffffffffffffffff1916905561061d81610b6b565b6040516001600160a01b038481166024830152838116604483015260648201839052610ae99186918216906323b872dd90608401610a11565b50505050565b6000610b046001600160a01b03841683610bc8565b90508051600014158015610b29575080806020019051810190610b279190610e20565b155b15610a58576040517f5274afe70000000000000000000000000000000000000000000000000000000081526001600160a01b038416600482015260240161060b565b600080546001600160a01b0383811673ffffffffffffffffffffffffffffffffffffffff19831681178455604051919092169283917f8be0079c531659141344cd1fd0a4f28419497f9722a3daafe3b4186f6b6457e09190a35050565b6060610bd683836000610bdd565b9392505050565b606081471015610c1b576040517fcd78605900000000000000000000000000000000000000000000000000000000815230600482015260240161060b565b600080856001600160a01b03168486604051610c379190610ed0565b60006040518083038185875af1925050503d8060008114610c74576040519150601f19603f3d011682016040523d82523d6000602084013e610c79565b606091505b5091509150610c89868383610c93565b9695505050505050565b606082610ca857610ca382610d08565b610bd6565b8151158015610cbf57506001600160a01b0384163b155b15610d01576040517f9996b3150000000000000000000000000000000000000000000000000000000081526001600160a01b038516600482015260240161060b565b5080610bd6565b805115610d185780518082602001fd5b6040517f1425ea4200000000000000000000000000000000000000000000000000000000815260040160405180910390fd5b80356001600160a01b0381168114610d6157600080fd5b919050565b600060208284031215610d7857600080fd5b610bd682610d4a565b600080600080600080600060e0888a031215610d9c57600080fd5b610da588610d4a565b9650602088013595506040880135945060608801359350608088013560ff81168114610dd057600080fd5b9699959850939692959460a0840135945060c09093013592915050565b600080600060608486031215610e0257600080fd5b610e0b84610d4a565b95602085013595506040909401359392505050565b600060208284031215610e3257600080fd5b81518015158114610bd657600080fd5b600060208284031215610e5457600080fd5b5051919050565b634e487b7160e01b600052601160045260246000fd5b8181038181111561051257610512610e5b565b808202811582820484141761051257610512610e5b565b600082610eb857634e487b7160e01b600052601260045260246000fd5b500490565b8082018082111561051257610512610e5b565b6000825160005b81811015610ef15760208186018101518583015201610ed7565b50600092019182525091905056fea2646970667358221220551fdf8ffa0e82acc653b42976d209f6f4d406747fa0af136e905f56bfd38eb064736f6c634300081700330000000000000000000000006d1206d66faa79e9fbd249b48aa55509071514a1000000000000000000000000c53e7008fe026ab5871b06c42ad5e2086ccb3dfd0000000000000000000000009be14296c60cdb491e341db4192d165690d5226f",
        "nonce": "0xb",
        "accessList": []
      },
      "additionalContracts": [],
      "isFixedGasLimit": false
    },
    {
      "hash": "0xa4dcd1bc9e936ed065670d4d248fea69fce83fcdf9f8483463c66eefc7892f22",
      "transactionType": "CREATE",
      "contractName": "Gamble",
      "contractAddress": "0xb31817E3B06C0D7E871d75D7929fAAe24624B5C9",
      "function": null,
      "arguments": [
        "0x6d1206D66faA79e9FBd249B48Aa55509071514a1",
        "0xC53E7008fE026Ab5871b06C42AD5E2086Ccb3dFd",
        "0x24f6A729B094854F334162309485A0082B05DC4a",
        "0x9be14296C60CDB491E341dB4192D165690D5226f",
        "0x7acbc214042016F6fbdE1c3bC37a4D6b4808B19e",
        "200000",
        "2000000000000000000",
        "10000000000000000000"
      ],
      "transaction": {
        "type": "0x02",
        "from": "0x6d1206d66faa79e9fbd249b48aa55509071514a1",
        "gas": "0x1bf8b3",
        "value": "0x0",
        "data": "0x610160604052600380546001600160401b03191660011790553480156200002557600080fd5b5060405162001a6038038062001a60833981016040819052620000489162000140565b876001600160a01b0381166200007857604051631e4fbdf760e01b81526000600482015260240160405180910390fd5b6200008381620000bc565b506001600160a01b0396871660805294861660a05292851660c052931660e05261010092909252610120919091526101405250620001db565b600180546001600160a01b0319169055620000d781620000da565b50565b600080546001600160a01b038381166001600160a01b0319831681178455604051919092169283917f8be0079c531659141344cd1fd0a4f28419497f9722a3daafe3b4186f6b6457e09190a35050565b6001600160a01b0381168114620000d757600080fd5b600080600080600080600080610100898b0312156200015e57600080fd5b88516200016b816200012a565b60208a01519098506200017e816200012a565b60408a015190975062000191816200012a565b60608a0151909650620001a4816200012a565b60808a0151909550620001b7816200012a565b60a08a015160c08b015160e0909b0151999c989b5096999598909790945092505050565b60805160a05160c05160e0516101005161012051610140516117ac620002b4600039600081816101e101526109860152600081816104a801528181610644015261083c0152600081816104470152610a020152600081816104000152610de801526000818161046e01528181610ab50152610c710152600081816104f3015281816105a20152818161077201528181610b6a01528181610c3501528181610d020152610f80015260008181610367015281816106880152818161086801528181610a5401528181610ae40152610c0d01526117ac6000f3fe608060405234801561001057600080fd5b50600436106101ae5760003560e01c80637c1bf395116100ee578063bed9985011610097578063d1c9253211610071578063d1c92532146104a3578063e30c3978146104ca578063f2fde38b146104db578063f7c618c1146104ee57600080fd5b8063bed9985014610442578063c31c9c0714610469578063c75cd70a1461049057600080fd5b80639b678c5c116100c85780639b678c5c146103f2578063a224c198146103fb578063a4f67b8b1461042257600080fd5b80637c1bf395146103a15780638a19c8bc146103b45780638da5cb5b146103e157600080fd5b80634c524be41161015b5780636e50fc46116101355780636e50fc4614610362578063715018a614610389578063731e19dd1461039157806379ba50971461039957600080fd5b80634c524be41461025f578063574479e61461028a5780636386c1c71461029357600080fd5b806310f233021161018c57806310f23302146102265780631e83409a1461023957806328ffe6c81461024c57600080fd5b806304fb3344146101b357806306718d33146101dc57806306ec16f814610211575b600080fd5b6101c66101c136600461154a565b610515565b6040516101d39190611563565b60405180910390f35b6102037f000000000000000000000000000000000000000000000000000000000000000081565b6040519081526020016101d3565b61022461021f3660046115cc565b610581565b005b6102246102343660046115e7565b610610565b6102246102473660046115cc565b6106fc565b61022461025a3660046115cc565b6107d8565b61027261026d36600461154a565b610977565b6040516001600160a01b0390911681526020016101d3565b61020360025481565b61031f6102a13660046115cc565b6040805160608082018352600080835260208084018290529284018190526001600160a01b039490941684526005825292829020825193840183525467ffffffffffffffff80821685526801000000000000000082041691840191909152600160801b90046fffffffffffffffffffffffffffffffff169082015290565b60408051825167ffffffffffffffff908116825260208085015190911690820152918101516fffffffffffffffffffffffffffffffff16908201526060016101d3565b6102727f000000000000000000000000000000000000000000000000000000000000000081565b610224610f4e565b610203610f62565b610224610ff9565b6101c66103af36600461163d565b611042565b6003546103c89067ffffffffffffffff1681565b60405167ffffffffffffffff90911681526020016101d3565b6000546001600160a01b0316610272565b61020360045481565b6102727f000000000000000000000000000000000000000000000000000000000000000081565b61020361043036600461154a565b60009081526006602052604090205490565b6102037f000000000000000000000000000000000000000000000000000000000000000081565b6102727f000000000000000000000000000000000000000000000000000000000000000081565b61027261049e366004611669565b611128565b6102037f000000000000000000000000000000000000000000000000000000000000000081565b6001546001600160a01b0316610272565b6102246104e93660046115cc565b611166565b6102727f000000000000000000000000000000000000000000000000000000000000000081565b60008181526006602090815260409182902080548351818402810184019094528084526060939283018282801561057557602002820191906000526020600020905b81546001600160a01b03168152600190910190602001808311610557575b50505050509050919050565b6105896111e4565b6000610593610f62565b90506105c96001600160a01b037f0000000000000000000000000000000000000000000000000000000000000000168383611211565b816001600160a01b03167f4256a058fa2b123d727576d3d31e3a272db98ee5fe264e229610ce43dc8499998260405161060491815260200190565b60405180910390a25050565b6040517fd505accf0000000000000000000000000000000000000000000000000000000081523360048201523060248201527f000000000000000000000000000000000000000000000000000000000000000060448201526064810185905260ff8416608482015260a4810183905260c481018290527f00000000000000000000000000000000000000000000000000000000000000006001600160a01b03169063d505accf9060e401600060405180830381600087803b1580156106d457600080fd5b505af11580156106e8573d6000803e3d6000fd5b505050506106f5856107d8565b5050505050565b6001600160a01b038116600090815260056020526040902054600160801b90046fffffffffffffffffffffffffffffffff1680156107d4576001600160a01b03808316600090815260056020526040902080546fffffffffffffffffffffffffffffffff169055600480548390039055610799907f0000000000000000000000000000000000000000000000000000000000000000168383611211565b816001600160a01b03167f47cee97cb7acd717b3c0aa1435d004cd5b3c8c57d70dbceb4e4458bbd60e39d48260405161060491815260200190565b5050565b6003546001600160a01b03821660009081526005602052604090205467ffffffffffffffff918216911681900361083a576040517e3b268200000000000000000000000000000000000000000000000000000000815260040160405180910390fd5b7f00000000000000000000000000000000000000000000000000000000000000006108906001600160a01b037f00000000000000000000000000000000000000000000000000000000000000001633308461128a565b6002805482019055600082815260066020818152604080842080546001600160a01b03891680875260058552838720805467ffffffffffffffff80851668010000000000000000027fffffffffffffffffffffffffffffffff00000000000000000000000000000000909216908c1617179055948452815460018101835591865292909420909301805473ffffffffffffffffffffffffffffffffffffffff19168317905591518491907fbca387acb0ba7d06e329c4372885bb664f19a98153ccf3e74e56c136bf0e88c4906109699085815260200190565b60405180910390a350505050565b60006109816111e4565b6002547f00000000000000000000000000000000000000000000000000000000000000008110156109de576040517f8bc54d3400000000000000000000000000000000000000000000000000000000815260040160405180910390fd5b60035467ffffffffffffffff166000818152600660205260408120549080620f42407f000000000000000000000000000000000000000000000000000000000000000086026003805467ffffffffffffffff19166001880167ffffffffffffffff16179055600060025504915050808403610a857f00000000000000000000000000000000000000000000000000000000000000006001600160a01b031661dead84611211565b6040517f095ea7b30000000000000000000000000000000000000000000000000000000081526001600160a01b037f000000000000000000000000000000000000000000000000000000000000000081166004830152602482018390527f0000000000000000000000000000000000000000000000000000000000000000169063095ea7b3906044016020604051808303816000875af1158015610b2d573d6000803e3d6000fd5b505050506040513d601f19601f82011682018060405250810190610b51919061168b565b506040516370a0823160e01b81523060048201526000907f00000000000000000000000000000000000000000000000000000000000000006001600160a01b0316906370a0823190602401602060405180830381865afa158015610bb9573d6000803e3d6000fd5b505050506040513d601f19601f82011682018060405250810190610bdd91906116ad565b6040517ffe0291560000000000000000000000000000000000000000000000000000000081526001600160a01b037f0000000000000000000000000000000000000000000000000000000000000000811660048301527f00000000000000000000000000000000000000000000000000000000000000008116602483015260448201859052606482018b90529192506000917f0000000000000000000000000000000000000000000000000000000000000000169063fe029156906084016020604051808303816000875af1158015610cba573d6000803e3d6000fd5b505050506040513d601f19601f82011682018060405250810190610cde91906116ad565b6040516370a0823160e01b8152306004820152909150819083906001600160a01b037f000000000000000000000000000000000000000000000000000000000000000016906370a0823190602401602060405180830381865afa158015610d49573d6000803e3d6000fd5b505050506040513d601f19601f82011682018060405250810190610d6d91906116ad565b610d7791906116dc565b1015610daf576040517f1115766700000000000000000000000000000000000000000000000000000000815260040160405180910390fd5b60048054820181556040517fb37217a40000000000000000000000000000000000000000000000000000000081529081018790526000907f00000000000000000000000000000000000000000000000000000000000000006001600160a01b03169063b37217a490602401602060405180830381865afa158015610e37573d6000803e3d6000fd5b505050506040513d601f19601f82011682018060405250810190610e5b91906116ad565b9050858110610e96576040517fc05271ca00000000000000000000000000000000000000000000000000000000815260040160405180910390fd5b6000878152600660205260409020805482908110610eb657610eb66116ef565b6000918252602080832091909101546001600160a01b0316808352600582526040928390208054600160801b8082046fffffffffffffffffffffffffffffffff90811689018116909102911617905582518b81529182018590529a5088918b917fca908db09e2c4b411e925f053dbe3ba2aad49023171939f512820b717f6b420b910160405180910390a35050505050505050919050565b610f566111e4565b610f6060006112c9565b565b600480546040516370a0823160e01b815230928101929092526000917f00000000000000000000000000000000000000000000000000000000000000006001600160a01b0316906370a0823190602401602060405180830381865afa158015610fcf573d6000803e3d6000fd5b505050506040513d601f19601f82011682018060405250810190610ff391906116ad565b03905090565b60015433906001600160a01b031681146110365760405163118cdaa760e01b81526001600160a01b03821660048201526024015b60405180910390fd5b61103f816112c9565b50565b606061104e83836116dc565b611059906001611705565b67ffffffffffffffff81111561107157611071611718565b60405190808252806020026020018201604052801561109a578160200160208202803683370190505b509050825b8281116111205760008581526006602052604090208054829081106110c6576110c66116ef565b9060005260206000200160009054906101000a90046001600160a01b031682858303815181106110f8576110f86116ef565b6001600160a01b03909216602092830291909101909101526111198161172e565b905061109f565b509392505050565b6000828152600660205260408120805483908110611148576111486116ef565b6000918252602090912001546001600160a01b031690505b92915050565b61116e6111e4565b600180546001600160a01b03831673ffffffffffffffffffffffffffffffffffffffff1990911681179091556111ac6000546001600160a01b031690565b6001600160a01b03167f38d16b8cac22d99fc7c124b9cd0de2d3fa1faef420bfe791d8c362d765e2270060405160405180910390a350565b6000546001600160a01b03163314610f605760405163118cdaa760e01b815233600482015260240161102d565b6040516001600160a01b0383811660248301526044820183905261128591859182169063a9059cbb906064015b604051602081830303815290604052915060e01b6020820180517bffffffffffffffffffffffffffffffffffffffffffffffffffffffff83818316178352505050506112ef565b505050565b6040516001600160a01b0384811660248301528381166044830152606482018390526112c39186918216906323b872dd9060840161123e565b50505050565b6001805473ffffffffffffffffffffffffffffffffffffffff1916905561103f8161136b565b60006113046001600160a01b038416836113c8565b90508051600014158015611329575080806020019051810190611327919061168b565b155b15611285576040517f5274afe70000000000000000000000000000000000000000000000000000000081526001600160a01b038416600482015260240161102d565b600080546001600160a01b0383811673ffffffffffffffffffffffffffffffffffffffff19831681178455604051919092169283917f8be0079c531659141344cd1fd0a4f28419497f9722a3daafe3b4186f6b6457e09190a35050565b60606113d6838360006113dd565b9392505050565b60608147101561141b576040517fcd78605900000000000000000000000000000000000000000000000000000000815230600482015260240161102d565b600080856001600160a01b031684866040516114379190611747565b60006040518083038185875af1925050503d8060008114611474576040519150601f19603f3d011682016040523d82523d6000602084013e611479565b606091505b5091509150611489868383611493565b9695505050505050565b6060826114a8576114a382611508565b6113d6565b81511580156114bf57506001600160a01b0384163b155b15611501576040517f9996b3150000000000000000000000000000000000000000000000000000000081526001600160a01b038516600482015260240161102d565b50806113d6565b8051156115185780518082602001fd5b6040517f1425ea4200000000000000000000000000000000000000000000000000000000815260040160405180910390fd5b60006020828403121561155c57600080fd5b5035919050565b6020808252825182820181905260009190848201906040850190845b818110156115a45783516001600160a01b03168352928401929184019160010161157f565b50909695505050505050565b80356001600160a01b03811681146115c757600080fd5b919050565b6000602082840312156115de57600080fd5b6113d6826115b0565b600080600080600060a086880312156115ff57600080fd5b611608866115b0565b945060208601359350604086013560ff8116811461162557600080fd5b94979396509394606081013594506080013592915050565b60008060006060848603121561165257600080fd5b505081359360208301359350604090920135919050565b6000806040838503121561167c57600080fd5b50508035926020909101359150565b60006020828403121561169d57600080fd5b815180151581146113d657600080fd5b6000602082840312156116bf57600080fd5b5051919050565b634e487b7160e01b600052601160045260246000fd5b81810381811115611160576111606116c6565b634e487b7160e01b600052603260045260246000fd5b80820180821115611160576111606116c6565b634e487b7160e01b600052604160045260246000fd5b600060018201611740576117406116c6565b5060010190565b6000825160005b81811015611768576020818601810151858301520161174e565b50600092019182525091905056fea264697066735822122064ad6dc09d156cfcde838b477328cf4934c7f4d2efab08e42fab80208fa70ba564736f6c634300081700330000000000000000000000006d1206d66faa79e9fbd249b48aa55509071514a1000000000000000000000000c53e7008fe026ab5871b06c42ad5e2086ccb3dfd00000000000000000000000024f6a729b094854f334162309485a0082b05dc4a0000000000000000000000009be14296c60cdb491e341db4192d165690d5226f0000000000000000000000007acbc214042016f6fbde1c3bc37a4d6b4808b19e0000000000000000000000000000000000000000000000000000000000030d400000000000000000000000000000000000000000000000001bc16d674ec800000000000000000000000000000000000000000000000000008ac7230489e80000",
        "nonce": "0xc",
        "accessList": []
      },
      "additionalContracts": [],
      "isFixedGasLimit": false
    },
    {
      "hash": "0xd7c7d9ecf976afefea0475f562096c3c566637a22b881ac946c434b85344d922",
      "transactionType": "CALL",
      "contractName": "src/Distributor.sol:Distributor",
      "contractAddress": "0x129400290d9d20e2Ff951683DA847be7aeC57Be2",
      "function": "register(address)",
      "arguments": [
        "0xE520D5A75fCbbdAeC7014a9de58846dCFFB6B18d"
      ],
      "transaction": {
        "type": "0x02",
        "from": "0x6d1206d66faa79e9fbd249b48aa55509071514a1",
        "to": "0x129400290d9d20e2ff951683da847be7aec57be2",
        "gas": "0x19900",
        "value": "0x0",
        "data": "0x4420e486000000000000000000000000e520d5a75fcbbdaec7014a9de58846dcffb6b18d",
        "nonce": "0xd",
        "accessList": []
      },
      "additionalContracts": [],
      "isFixedGasLimit": false
    },
    {
      "hash": "0xd76be587abdd16fe93fe013d422f6ef69ea1cff1eb29ac9428680c55f3e6446e",
      "transactionType": "CALL",
      "contractName": "src/Distributor.sol:Distributor",
      "contractAddress": "0x129400290d9d20e2Ff951683DA847be7aeC57Be2",
      "function": "register(address)",
      "arguments": [
        "0x66adDE90Cb4f892C517C3eF579FfFDBb2a726eEd"
      ],
      "transaction": {
        "type": "0x02",
        "from": "0x6d1206d66faa79e9fbd249b48aa55509071514a1",
        "to": "0x129400290d9d20e2ff951683da847be7aec57be2",
        "gas": "0x12603",
        "value": "0x0",
        "data": "0x4420e48600000000000000000000000066adde90cb4f892c517c3ef579fffdbb2a726eed",
        "nonce": "0xe",
        "accessList": []
      },
      "additionalContracts": [],
      "isFixedGasLimit": false
    },
    {
      "hash": "0x32f0f3d426b14d62f365c8b09944516e36c9ce66ff9514483e9f53348d0db795",
      "transactionType": "CALL",
      "contractName": "src/Distributor.sol:Distributor",
      "contractAddress": "0x129400290d9d20e2Ff951683DA847be7aeC57Be2",
      "function": "register(address)",
      "arguments": [
        "0x34f196FF027591C061f26E5138129A69F10BbE6d"
      ],
      "transaction": {
        "type": "0x02",
        "from": "0x6d1206d66faa79e9fbd249b48aa55509071514a1",
        "to": "0x129400290d9d20e2ff951683da847be7aec57be2",
        "gas": "0x12603",
        "value": "0x0",
        "data": "0x4420e48600000000000000000000000034f196ff027591c061f26e5138129a69f10bbe6d",
        "nonce": "0xf",
        "accessList": []
      },
      "additionalContracts": [],
      "isFixedGasLimit": false
    },
    {
      "hash": "0x9dc8ea8f1b838b54e8a399ab7072627b8d505ae8137dca525e81fc39679c7230",
      "transactionType": "CALL",
      "contractName": "src/Distributor.sol:Distributor",
      "contractAddress": "0x129400290d9d20e2Ff951683DA847be7aeC57Be2",
      "function": "register(address)",
      "arguments": [
        "0x03a37e88aD865469C196f484AE32CDa71eB24Cf1"
      ],
      "transaction": {
        "type": "0x02",
        "from": "0x6d1206d66faa79e9fbd249b48aa55509071514a1",
        "to": "0x129400290d9d20e2ff951683da847be7aec57be2",
        "gas": "0x12603",
        "value": "0x0",
        "data": "0x4420e48600000000000000000000000003a37e88ad865469c196f484ae32cda71eb24cf1",
        "nonce": "0x10",
        "accessList": []
      },
      "additionalContracts": [],
      "isFixedGasLimit": false
    },
    {
      "hash": "0xf2a3d1865cb5f0d7abb129a331bac0ef92d4c73f8ea57eca35604f093a4e5bbd",
      "transactionType": "CALL",
      "contractName": "src/Distributor.sol:Distributor",
      "contractAddress": "0x129400290d9d20e2Ff951683DA847be7aeC57Be2",
      "function": "register(address)",
      "arguments": [
        "0x710844221954055d99efa7a3B6a9f8409264b256"
      ],
      "transaction": {
        "type": "0x02",
        "from": "0x6d1206d66faa79e9fbd249b48aa55509071514a1",
        "to": "0x129400290d9d20e2ff951683da847be7aec57be2",
        "gas": "0x12603",
        "value": "0x0",
        "data": "0x4420e486000000000000000000000000710844221954055d99efa7a3b6a9f8409264b256",
        "nonce": "0x11",
        "accessList": []
      },
      "additionalContracts": [],
      "isFixedGasLimit": false
    },
    {
      "hash": "0xe05220cf1c7f494476760ddf649b09b25f67169bb2c5c7ab5fcb0dda558a55d4",
      "transactionType": "CALL",
      "contractName": "src/MockToken.sol:MockToken",
      "contractAddress": "0x24f6A729B094854F334162309485A0082B05DC4a",
      "function": "mint(address,uint256)",
      "arguments": [
        "0x9be14296C60CDB491E341dB4192D165690D5226f",
        "100000000000"
      ],
      "transaction": {
        "type": "0x02",
        "from": "0x6d1206d66faa79e9fbd249b48aa55509071514a1",
        "to": "0x24f6a729b094854f334162309485a0082b05dc4a",
        "gas": "0x17d12",
        "value": "0x0",
        "data": "0x40c10f190000000000000000000000009be14296c60cdb491e341db4192d165690d5226f000000000000000000000000000000000000000000000000000000174876e800",
        "nonce": "0x12",
        "accessList": []
      },
      "additionalContracts": [],
      "isFixedGasLimit": false
    },
    {
      "hash": "0xe6ea5ed95f082e8fb62ffcdd7d144c686b83b6f35262d9408054e4d9223fe23d",
      "transactionType": "CALL",
      "contractName": "src/MockToken.sol:MockToken",
      "contractAddress": "0xC53E7008fE026Ab5871b06C42AD5E2086Ccb3dFd",
      "function": "mint(address,uint256)",
      "arguments": [
        "0x9be14296C60CDB491E341dB4192D165690D5226f",
        "100000000000000000000000"
      ],
      "transaction": {
        "type": "0x02",
        "from": "0x6d1206d66faa79e9fbd249b48aa55509071514a1",
        "to": "0xc53e7008fe026ab5871b06c42ad5e2086ccb3dfd",
        "gas": "0x17d54",
        "value": "0x0",
        "data": "0x40c10f190000000000000000000000009be14296c60cdb491e341db4192d165690d5226f00000000000000000000000000000000000000000000152d02c7e14af6800000",
        "nonce": "0x13",
        "accessList": []
      },
      "additionalContracts": [],
      "isFixedGasLimit": false
    },
    {
      "hash": "0xfa273751e115994371681f5f531ea793b5e61d9c5a8ed5cb69b95832a05cd057",
      "transactionType": "CALL",
      "contractName": "src/MockToken.sol:MockToken",
      "contractAddress": "0x24f6A729B094854F334162309485A0082B05DC4a",
      "function": "mint(address,uint256)",
      "arguments": [
        "0x6d1206D66faA79e9FBd249B48Aa55509071514a1",
        "1000000000"
      ],
      "transaction": {
        "type": "0x02",
        "from": "0x6d1206d66faa79e9fbd249b48aa55509071514a1",
        "to": "0x24f6a729b094854f334162309485a0082b05dc4a",
        "gas": "0x120be",
        "value": "0x0",
        "data": "0x40c10f190000000000000000000000006d1206d66faa79e9fbd249b48aa55509071514a1000000000000000000000000000000000000000000000000000000003b9aca00",
        "nonce": "0x14",
        "accessList": []
      },
      "additionalContracts": [],
      "isFixedGasLimit": false
    },
    {
      "hash": "0x7a3e2663e8d761626b5ae0098965c0dda7839b3c96c058e3ca26304aac39f6fb",
      "transactionType": "CALL",
      "contractName": "src/MockToken.sol:MockToken",
      "contractAddress": "0xC53E7008fE026Ab5871b06C42AD5E2086Ccb3dFd",
      "function": "mint(address,uint256)",
      "arguments": [
        "0x6d1206D66faA79e9FBd249B48Aa55509071514a1",
        "1000000000000000000000"
      ],
      "transaction": {
        "type": "0x02",
        "from": "0x6d1206d66faa79e9fbd249b48aa55509071514a1",
        "to": "0xc53e7008fe026ab5871b06c42ad5e2086ccb3dfd",
        "gas": "0x12100",
        "value": "0x0",
        "data": "0x40c10f190000000000000000000000006d1206d66faa79e9fbd249b48aa55509071514a100000000000000000000000000000000000000000000003635c9adc5dea00000",
        "nonce": "0x15",
        "accessList": []
      },
      "additionalContracts": [],
      "isFixedGasLimit": false
    },
    {
      "hash": "0x8ccb6d0b09cbb29dd072fe40da505d6c2738b75c99be23b197d05e05ee530776",
      "transactionType": "CALL",
      "contractName": "src/MockToken.sol:MockToken",
      "contractAddress": "0x24f6A729B094854F334162309485A0082B05DC4a",
      "function": "mint(address,uint256)",
      "arguments": [
        "0xE520D5A75fCbbdAeC7014a9de58846dCFFB6B18d",
        "1000000000"
      ],
      "transaction": {
        "type": "0x02",
        "from": "0x6d1206d66faa79e9fbd249b48aa55509071514a1",
        "to": "0x24f6a729b094854f334162309485a0082b05dc4a",
        "gas": "0x120be",
        "value": "0x0",
        "data": "0x40c10f19000000000000000000000000e520d5a75fcbbdaec7014a9de58846dcffb6b18d000000000000000000000000000000000000000000000000000000003b9aca00",
        "nonce": "0x16",
        "accessList": []
      },
      "additionalContracts": [],
      "isFixedGasLimit": false
    },
    {
      "hash": "0x7b5221748e8b06bb834e740742d180a3398ad705ab7c2dd8d2d73bbe4ff95bdc",
      "transactionType": "CALL",
      "contractName": "src/MockToken.sol:MockToken",
      "contractAddress": "0xC53E7008fE026Ab5871b06C42AD5E2086Ccb3dFd",
      "function": "mint(address,uint256)",
      "arguments": [
        "0xE520D5A75fCbbdAeC7014a9de58846dCFFB6B18d",
        "1000000000000000000000"
      ],
      "transaction": {
        "type": "0x02",
        "from": "0x6d1206d66faa79e9fbd249b48aa55509071514a1",
        "to": "0xc53e7008fe026ab5871b06c42ad5e2086ccb3dfd",
        "gas": "0x12100",
        "value": "0x0",
        "data": "0x40c10f19000000000000000000000000e520d5a75fcbbdaec7014a9de58846dcffb6b18d00000000000000000000000000000000000000000000003635c9adc5dea00000",
        "nonce": "0x17",
        "accessList": []
      },
      "additionalContracts": [],
      "isFixedGasLimit": false
    },
    {
      "hash": "0xf07384e899fd18741a00df9ff11d7e0ac68ea30373f2a76047a1aa69ac4e26d4",
      "transactionType": "CALL",
      "contractName": "src/MockToken.sol:MockToken",
      "contractAddress": "0x24f6A729B094854F334162309485A0082B05DC4a",
      "function": "mint(address,uint256)",
      "arguments": [
        "0xE520D5A75fCbbdAeC7014a9de58846dCFFB6B18d",
        "1000000000"
      ],
      "transaction": {
        "type": "0x02",
        "from": "0x6d1206d66faa79e9fbd249b48aa55509071514a1",
        "to": "0x24f6a729b094854f334162309485a0082b05dc4a",
        "gas": "0xc47b",
        "value": "0x0",
        "data": "0x40c10f19000000000000000000000000e520d5a75fcbbdaec7014a9de58846dcffb6b18d000000000000000000000000000000000000000000000000000000003b9aca00",
        "nonce": "0x18",
        "accessList": []
      },
      "additionalContracts": [],
      "isFixedGasLimit": false
    },
    {
      "hash": "0x53e5c4520112465ec4f66befceb29ed87b06617e17e6c7b9a81d4d0d4a4d5b0e",
      "transactionType": "CALL",
      "contractName": "src/MockToken.sol:MockToken",
      "contractAddress": "0xC53E7008fE026Ab5871b06C42AD5E2086Ccb3dFd",
      "function": "mint(address,uint256)",
      "arguments": [
        "0xE520D5A75fCbbdAeC7014a9de58846dCFFB6B18d",
        "1000000000000000000000"
      ],
      "transaction": {
        "type": "0x02",
        "from": "0x6d1206d66faa79e9fbd249b48aa55509071514a1",
        "to": "0xc53e7008fe026ab5871b06c42ad5e2086ccb3dfd",
        "gas": "0xc4bd",
        "value": "0x0",
        "data": "0x40c10f19000000000000000000000000e520d5a75fcbbdaec7014a9de58846dcffb6b18d00000000000000000000000000000000000000000000003635c9adc5dea00000",
        "nonce": "0x19",
        "accessList": []
      },
      "additionalContracts": [],
      "isFixedGasLimit": false
    },
    {
      "hash": "0xa30acbf227c54d35e44ed75650c29eba31564f0ae3c1b589145c7878cdafe2c0",
      "transactionType": "CALL",
      "contractName": "src/MockToken.sol:MockToken",
      "contractAddress": "0x24f6A729B094854F334162309485A0082B05DC4a",
      "function": "mint(address,uint256)",
      "arguments": [
        "0xE520D5A75fCbbdAeC7014a9de58846dCFFB6B18d",
        "1000000000"
      ],
      "transaction": {
        "type": "0x02",
        "from": "0x6d1206d66faa79e9fbd249b48aa55509071514a1",
        "to": "0x24f6a729b094854f334162309485a0082b05dc4a",
        "gas": "0xc47b",
        "value": "0x0",
        "data": "0x40c10f19000000000000000000000000e520d5a75fcbbdaec7014a9de58846dcffb6b18d000000000000000000000000000000000000000000000000000000003b9aca00",
        "nonce": "0x1a",
        "accessList": []
      },
      "additionalContracts": [],
      "isFixedGasLimit": false
    },
    {
      "hash": "0x5f54bc351537b30344749812260a867b8d9fbbc4fb03db892ab2d4039ce0469a",
      "transactionType": "CALL",
      "contractName": "src/MockToken.sol:MockToken",
      "contractAddress": "0xC53E7008fE026Ab5871b06C42AD5E2086Ccb3dFd",
      "function": "mint(address,uint256)",
      "arguments": [
        "0xE520D5A75fCbbdAeC7014a9de58846dCFFB6B18d",
        "1000000000000000000000"
      ],
      "transaction": {
        "type": "0x02",
        "from": "0x6d1206d66faa79e9fbd249b48aa55509071514a1",
        "to": "0xc53e7008fe026ab5871b06c42ad5e2086ccb3dfd",
        "gas": "0xc4bd",
        "value": "0x0",
        "data": "0x40c10f19000000000000000000000000e520d5a75fcbbdaec7014a9de58846dcffb6b18d00000000000000000000000000000000000000000000003635c9adc5dea00000",
        "nonce": "0x1b",
        "accessList": []
      },
      "additionalContracts": [],
      "isFixedGasLimit": false
    },
    {
      "hash": "0x453811582a92ef41c0afd1bc795e1ad2abd59f12553d458fe74dcb49668e8632",
      "transactionType": "CALL",
      "contractName": "src/MockToken.sol:MockToken",
      "contractAddress": "0x24f6A729B094854F334162309485A0082B05DC4a",
      "function": "mint(address,uint256)",
      "arguments": [
        "0xE520D5A75fCbbdAeC7014a9de58846dCFFB6B18d",
        "1000000000"
      ],
      "transaction": {
        "type": "0x02",
        "from": "0x6d1206d66faa79e9fbd249b48aa55509071514a1",
        "to": "0x24f6a729b094854f334162309485a0082b05dc4a",
        "gas": "0xc47b",
        "value": "0x0",
        "data": "0x40c10f19000000000000000000000000e520d5a75fcbbdaec7014a9de58846dcffb6b18d000000000000000000000000000000000000000000000000000000003b9aca00",
        "nonce": "0x1c",
        "accessList": []
      },
      "additionalContracts": [],
      "isFixedGasLimit": false
    },
    {
      "hash": "0xa6827c3d9cfe292fb3ad421416375f927f7cb673cff4667f5d14a9846368911d",
      "transactionType": "CALL",
      "contractName": "src/MockToken.sol:MockToken",
      "contractAddress": "0xC53E7008fE026Ab5871b06C42AD5E2086Ccb3dFd",
      "function": "mint(address,uint256)",
      "arguments": [
        "0xE520D5A75fCbbdAeC7014a9de58846dCFFB6B18d",
        "1000000000000000000000"
      ],
      "transaction": {
        "type": "0x02",
        "from": "0x6d1206d66faa79e9fbd249b48aa55509071514a1",
        "to": "0xc53e7008fe026ab5871b06c42ad5e2086ccb3dfd",
        "gas": "0xc4bd",
        "value": "0x0",
        "data": "0x40c10f19000000000000000000000000e520d5a75fcbbdaec7014a9de58846dcffb6b18d00000000000000000000000000000000000000000000003635c9adc5dea00000",
        "nonce": "0x1d",
        "accessList": []
      },
      "additionalContracts": [],
      "isFixedGasLimit": false
    },
    {
      "hash": "0xf179f25d524b06977df7bf573217ea6ea12054de494dcd6c3acd6e2239fb3a76",
      "transactionType": "CALL",
      "contractName": "src/MockToken.sol:MockToken",
      "contractAddress": "0x24f6A729B094854F334162309485A0082B05DC4a",
      "function": "mint(address,uint256)",
      "arguments": [
        "0xE520D5A75fCbbdAeC7014a9de58846dCFFB6B18d",
        "1000000000"
      ],
      "transaction": {
        "type": "0x02",
        "from": "0x6d1206d66faa79e9fbd249b48aa55509071514a1",
        "to": "0x24f6a729b094854f334162309485a0082b05dc4a",
        "gas": "0xc47b",
        "value": "0x0",
        "data": "0x40c10f19000000000000000000000000e520d5a75fcbbdaec7014a9de58846dcffb6b18d000000000000000000000000000000000000000000000000000000003b9aca00",
        "nonce": "0x1e",
        "accessList": []
      },
      "additionalContracts": [],
      "isFixedGasLimit": false
    },
    {
      "hash": "0xd022d48c1d53167b5fdccd625dfa5bec381d6cbad70e746f05462b5ab3c31d3b",
      "transactionType": "CALL",
      "contractName": "src/MockToken.sol:MockToken",
      "contractAddress": "0xC53E7008fE026Ab5871b06C42AD5E2086Ccb3dFd",
      "function": "mint(address,uint256)",
      "arguments": [
        "0xE520D5A75fCbbdAeC7014a9de58846dCFFB6B18d",
        "1000000000000000000000"
      ],
      "transaction": {
        "type": "0x02",
        "from": "0x6d1206d66faa79e9fbd249b48aa55509071514a1",
        "to": "0xc53e7008fe026ab5871b06c42ad5e2086ccb3dfd",
        "gas": "0xc4bd",
        "value": "0x0",
        "data": "0x40c10f19000000000000000000000000e520d5a75fcbbdaec7014a9de58846dcffb6b18d00000000000000000000000000000000000000000000003635c9adc5dea00000",
        "nonce": "0x1f",
        "accessList": []
      },
      "additionalContracts": [],
      "isFixedGasLimit": false
    }
  ],
  "receipts": [
    {
      "transactionHash": "0xb4c84d91d16b6e0dc7b40935bace8fe4f9a923a77d881e14fe0cc4f6e010d2c8",
      "transactionIndex": "0x1",
      "blockHash": "0x96a402cbeb1b38740165f8c841b9d084b8f433ca87a1a14156bdaa5582d9d7ca",
      "blockNumber": "0x17bd42",
      "from": "0x6d1206D66faA79e9FBd249B48Aa55509071514a1",
      "to": null,
      "cumulativeGasUsed": "0x127404",
      "gasUsed": "0x11bca3",
      "contractAddress": "0xC53E7008fE026Ab5871b06C42AD5E2086Ccb3dFd",
      "logs": [
        {
          "address": "0xC53E7008fE026Ab5871b06C42AD5E2086Ccb3dFd",
          "topics": [
            "0x8be0079c531659141344cd1fd0a4f28419497f9722a3daafe3b4186f6b6457e0",
            "0x0000000000000000000000000000000000000000000000000000000000000000",
            "0x0000000000000000000000006d1206d66faa79e9fbd249b48aa55509071514a1"
          ],
          "data": "0x",
          "blockHash": "0x96a402cbeb1b38740165f8c841b9d084b8f433ca87a1a14156bdaa5582d9d7ca",
          "blockNumber": "0x17bd42",
          "transactionHash": "0xb4c84d91d16b6e0dc7b40935bace8fe4f9a923a77d881e14fe0cc4f6e010d2c8",
          "transactionIndex": "0x1",
          "logIndex": "0x0",
          "removed": false
        }
      ],
      "status": "0x1",
      "logsBloom": "0x00000000000000000000000000000000000000000000000000800000000000000000000000000000000000000000000000000000000000000000000000802000000000000000000000000000000000020001000000000000000000000000000000000000020000000000000000000800000000000000000000000000000000400000000000000000000000000020020000000000000000000000000000000000000000000000000000000000000000000000000000000000000000000000000000000000000000000000000000000000000000000000000000000000000020000000000000000000000000000000000000000000000000000000000100000000",
      "type": "0x2",
      "effectiveGasPrice": "0xb2d05ff7"
    },
    {
      "transactionHash": "0x7b3764bc1e06d4441a8ff0550a14fb898e757f0f8ccdb5e453dfb440a82fd91e",
      "transactionIndex": "0x2",
      "blockHash": "0x96a402cbeb1b38740165f8c841b9d084b8f433ca87a1a14156bdaa5582d9d7ca",
      "blockNumber": "0x17bd42",
      "from": "0x6d1206D66faA79e9FBd249B48Aa55509071514a1",
      "to": null,
      "cumulativeGasUsed": "0x2430a7",
      "gasUsed": "0x11bca3",
      "contractAddress": "0x24f6A729B094854F334162309485A0082B05DC4a",
      "logs": [
        {
          "address": "0x24f6A729B094854F334162309485A0082B05DC4a",
          "topics": [
            "0x8be0079c531659141344cd1fd0a4f28419497f9722a3daafe3b4186f6b6457e0",
            "0x0000000000000000000000000000000000000000000000000000000000000000",
            "0x0000000000000000000000006d1206d66faa79e9fbd249b48aa55509071514a1"
          ],
          "data": "0x",
          "blockHash": "0x96a402cbeb1b38740165f8c841b9d084b8f433ca87a1a14156bdaa5582d9d7ca",
          "blockNumber": "0x17bd42",
          "transactionHash": "0x7b3764bc1e06d4441a8ff0550a14fb898e757f0f8ccdb5e453dfb440a82fd91e",
          "transactionIndex": "0x2",
          "logIndex": "0x1",
          "removed": false
        }
      ],
      "status": "0x1",
      "logsBloom": "0x00000000000000000000000000000000000000000000000000800000000000000000000000000000000000000000000000000000000000000000000100002000000000000000000000000000010000020001000000000000000000000000000200000000020000000000000000000800000000000000000000000000000000400000000000000000000000000020000000000000000000000000000000000000000000000000000000000000000000000000000000000000000000000000000000000000000000000000000000000000000000000000000000000000000020000000000000000000000000000000000000000000000000000000000000000000",
      "type": "0x2",
      "effectiveGasPrice": "0xb2d05ff7"
    },
    {
      "transactionHash": "0x211fa265c9d97a494702f0e7fd58c78faa9b82281ee9a284d275654eabaa3141",
      "transactionIndex": "0x3",
      "blockHash": "0x96a402cbeb1b38740165f8c841b9d084b8f433ca87a1a14156bdaa5582d9d7ca",
      "blockNumber": "0x17bd42",
      "from": "0x6d1206D66faA79e9FBd249B48Aa55509071514a1",
      "to": null,
      "cumulativeGasUsed": "0x2db0e8",
      "gasUsed": "0x98041",
      "contractAddress": "0x9be14296C60CDB491E341dB4192D165690D5226f",
      "logs": [
        {
          "address": "0x9be14296C60CDB491E341dB4192D165690D5226f",
          "topics": [
            "0x8be0079c531659141344cd1fd0a4f28419497f9722a3daafe3b4186f6b6457e0",
            "0x0000000000000000000000000000000000000000000000000000000000000000",
            "0x0000000000000000000000006d1206d66faa79e9fbd249b48aa55509071514a1"
          ],
          "data": "0x",
          "blockHash": "0x96a402cbeb1b38740165f8c841b9d084b8f433ca87a1a14156bdaa5582d9d7ca",
          "blockNumber": "0x17bd42",
          "transactionHash": "0x211fa265c9d97a494702f0e7fd58c78faa9b82281ee9a284d275654eabaa3141",
          "transactionIndex": "0x3",
          "logIndex": "0x2",
          "removed": false
        }
      ],
      "status": "0x1",
      "logsBloom": "0x00000000000000000000000000080000000000000000000000800000000000000000000000000000000000000000000000000000000000080000000000002000000000000000000000000000000000020001000000000000000000000000000000000000020000000000000000000800000000000000000000000000000000400000000000000000000000000020000000000000000000000000000000000000000000000000000000000000000000000000000000000000000000000000000000000000000000000000000000000000200000000000000000000000000020000000000000000000000000000000000000000000000000000000000000000000",
      "type": "0x2",
      "effectiveGasPrice": "0xb2d05ff7"
    },
    {
      "transactionHash": "0x7d91744b13eb7005059eedf617ccb7b1be5cdbcde969f7eb19d151d8da3e9dd6",
      "transactionIndex": "0x4",
      "blockHash": "0x96a402cbeb1b38740165f8c841b9d084b8f433ca87a1a14156bdaa5582d9d7ca",
      "blockNumber": "0x17bd42",
      "from": "0x6d1206D66faA79e9FBd249B48Aa55509071514a1",
      "to": "0x9be14296C60CDB491E341dB4192D165690D5226f",
      "cumulativeGasUsed": "0x2e67fd",
      "gasUsed": "0xb715",
      "contractAddress": null,
      "logs": [],
      "status": "0x1",
      "logsBloom": "0x00000000000000000000000000000000000000000000000000000000000000000000000000000000000000000000000000000000000000000000000000000000000000000000000000000000000000000000000000000000000000000000000000000000000000000000000000000000000000000000000000000000000000000000000000000000000000000000000000000000000000000000000000000000000000000000000000000000000000000000000000000000000000000000000000000000000000000000000000000000000000000000000000000000000000000000000000000000000000000000000000000000000000000000000000000000",
      "type": "0x2",
      "effectiveGasPrice": "0xb2d05ff7"
    },
    {
      "transactionHash": "0xd5daca5cab971627e92cb75915ef3c72bd2bc5c9eae6054b023938e217e8b230",
      "transactionIndex": "0x5",
      "blockHash": "0x96a402cbeb1b38740165f8c841b9d084b8f433ca87a1a14156bdaa5582d9d7ca",
      "blockNumber": "0x17bd42",
      "from": "0x6d1206D66faA79e9FBd249B48Aa55509071514a1",
      "to": "0x9be14296C60CDB491E341dB4192D165690D5226f",
      "cumulativeGasUsed": "0x2f1f12",
      "gasUsed": "0xb715",
      "contractAddress": null,
      "logs": [],
      "status": "0x1",
      "logsBloom": "0x00000000000000000000000000000000000000000000000000000000000000000000000000000000000000000000000000000000000000000000000000000000000000000000000000000000000000000000000000000000000000000000000000000000000000000000000000000000000000000000000000000000000000000000000000000000000000000000000000000000000000000000000000000000000000000000000000000000000000000000000000000000000000000000000000000000000000000000000000000000000000000000000000000000000000000000000000000000000000000000000000000000000000000000000000000000",
      "type": "0x2",
      "effectiveGasPrice": "0xb2d05ff7"
    },
    {
      "transactionHash": "0x1fd1980c3392e2d30b686934472ad2d4f8fafc146809a0be322d6a139498df44",
      "transactionIndex": "0x6",
      "blockHash": "0x96a402cbeb1b38740165f8c841b9d084b8f433ca87a1a14156bdaa5582d9d7ca",
      "blockNumber": "0x17bd42",
      "from": "0x6d1206D66faA79e9FBd249B48Aa55509071514a1",
      "to": null,
      "cumulativeGasUsed": "0x32ac32",
      "gasUsed": "0x38d20",
      "contractAddress": "0x7acbc214042016F6fbdE1c3bC37a4D6b4808B19e",
      "logs": [
        {
          "address": "0x7acbc214042016F6fbdE1c3bC37a4D6b4808B19e",
          "topics": [
            "0x8be0079c531659141344cd1fd0a4f28419497f9722a3daafe3b4186f6b6457e0",
            "0x0000000000000000000000000000000000000000000000000000000000000000",
            "0x0000000000000000000000006d1206d66faa79e9fbd249b48aa55509071514a1"
          ],
          "data": "0x",
          "blockHash": "0x96a402cbeb1b38740165f8c841b9d084b8f433ca87a1a14156bdaa5582d9d7ca",
          "blockNumber": "0x17bd42",
          "transactionHash": "0x1fd1980c3392e2d30b686934472ad2d4f8fafc146809a0be322d6a139498df44",
          "transactionIndex": "0x6",
          "logIndex": "0x3",
          "removed": false
        }
      ],
      "status": "0x1",
      "logsBloom": "0x00000000000000000000000000000000000000000000000000800000000000000000000000000000000000000000000000000000000000000000000000002000000000000000000000000000000000020001000200000000000000000000000000000000020000000000000000000800000000000000000000000000000000400000000000000000000000000020000008000000000000000000000000000000000000000000000000000000000000000000000000000000000000000000000000000000000000000000000000000000000000000000000000000000000020000000000000000000000000000000000000000004000000000000000000000000",
      "type": "0x2",
      "effectiveGasPrice": "0xb2d05ff7"
    },
    {
      "transactionHash": "0xe6bd25397b5db6ef82f1d30c26fdd930c2d598b414d30e3e48620a8d5b90f7ae",
      "transactionIndex": "0x1",
      "blockHash": "0x33e8ae01e913744017839552ca7dd1703345bfc34c7701913c33f9af3df74377",
      "blockNumber": "0x17bd43",
      "from": "0x6d1206D66faA79e9FBd249B48Aa55509071514a1",
      "to": null,
      "cumulativeGasUsed": "0xf1ff9",
      "gasUsed": "0xe6898",
      "contractAddress": "0x129400290d9d20e2Ff951683DA847be7aeC57Be2",
      "logs": [
        {
          "address": "0x129400290d9d20e2Ff951683DA847be7aeC57Be2",
          "topics": [
            "0x8be0079c531659141344cd1fd0a4f28419497f9722a3daafe3b4186f6b6457e0",
            "0x0000000000000000000000000000000000000000000000000000000000000000",
            "0x0000000000000000000000006d1206d66faa79e9fbd249b48aa55509071514a1"
          ],
          "data": "0x",
          "blockHash": "0x33e8ae01e913744017839552ca7dd1703345bfc34c7701913c33f9af3df74377",
          "blockNumber": "0x17bd43",
          "transactionHash": "0xe6bd25397b5db6ef82f1d30c26fdd930c2d598b414d30e3e48620a8d5b90f7ae",
          "transactionIndex": "0x1",
          "logIndex": "0x0",
          "removed": false
        }
      ],
      "status": "0x1",
      "logsBloom": "0x00000000000000002000000000000000000000000000000000800000000000000000000000000000000000000000000000000000000000000000000000002000000000000000000000000000000000020001000000000000000000010000000000000000020000000000000000000800000000000000000000000000000000400000200000000000000000000020000000000000000000000000000000000000000000000000000000000000000000000000000000000000000000000000000000000000000000000000000000000000000000000000000000000000000020000000000000000000000000000000000000000000000000000000000000000000",
      "type": "0x2",
      "effectiveGasPrice": "0xb2d05ff8"
    },
    {
      "transactionHash": "0xa4dcd1bc9e936ed065670d4d248fea69fce83fcdf9f8483463c66eefc7892f22",
      "transactionIndex": "0x2",
      "blockHash": "0x33e8ae01e913744017839552ca7dd1703345bfc34c7701913c33f9af3df74377",
      "blockNumber": "0x17bd43",
      "from": "0x6d1206D66faA79e9FBd249B48Aa55509071514a1",
      "to": null,
      "cumulativeGasUsed": "0x24a5ea",
      "gasUsed": "0x1585f1",
      "contractAddress": "0xb31817E3B06C0D7E871d75D7929fAAe24624B5C9",
      "logs": [
        {
          "address": "0xb31817E3B06C0D7E871d75D7929fAAe24624B5C9",
          "topics": [
            "0x8be0079c531659141344cd1fd0a4f28419497f9722a3daafe3b4186f6b6457e0",
            "0x0000000000000000000000000000000000000000000000000000000000000000",
            "0x0000000000000000000000006d1206d66faa79e9fbd249b48aa55509071514a1"
          ],
          "data": "0x",
          "blockHash": "0x33e8ae01e913744017839552ca7dd1703345bfc34c7701913c33f9af3df74377",
          "blockNumber": "0x17bd43",
          "transactionHash": "0xa4dcd1bc9e936ed065670d4d248fea69fce83fcdf9f8483463c66eefc7892f22",
          "transactionIndex": "0x2",
          "logIndex": "0x1",
          "removed": false
        }
      ],
      "status": "0x1",
      "logsBloom": "0x00000000000000000000000000000000000000000000000000800000000000000000000000000000000000000000000000000000000000000000000000002000000000000000000000000000000000020001000000000000000000000000000000000000020000000000000080000800000200000000000000000000000000400000000000000000000000000020000000000000000000000000000000000000000000000000000000000000000000000000000000000000000000000000000000000000000000000000000000200000000000000000000000000000000020000000000000000000000000000000000000000000000000000000000000000000",
      "type": "0x2",
      "effectiveGasPrice": "0xb2d05ff8"
    },
    {
      "transactionHash": "0xd7c7d9ecf976afefea0475f562096c3c566637a22b881ac946c434b85344d922",
      "transactionIndex": "0x3",
      "blockHash": "0x33e8ae01e913744017839552ca7dd1703345bfc34c7701913c33f9af3df74377",
      "blockNumber": "0x17bd43",
      "from": "0x6d1206D66faA79e9FBd249B48Aa55509071514a1",
      "to": "0x129400290d9d20e2Ff951683DA847be7aeC57Be2",
      "cumulativeGasUsed": "0x25bd93",
      "gasUsed": "0x117a9",
      "contractAddress": null,
      "logs": [
        {
          "address": "0x129400290d9d20e2Ff951683DA847be7aeC57Be2",
          "topics": [
            "0xeeda149c76076b34d4b9d8896c2f7efc0d33d1c7b53ea3c5db490d64613f603a",
            "0x000000000000000000000000e520d5a75fcbbdaec7014a9de58846dcffb6b18d"
          ],
          "data": "0x",
          "blockHash": "0x33e8ae01e913744017839552ca7dd1703345bfc34c7701913c33f9af3df74377",
          "blockNumber": "0x17bd43",
          "transactionHash": "0xd7c7d9ecf976afefea0475f562096c3c566637a22b881ac946c434b85344d922",
          "transactionIndex": "0x3",
          "logIndex": "0x2",
          "removed": false
        }
      ],
      "status": "0x1",
      "logsBloom": "0x00000000000000002000000000000000000000000004000000000000000000000000000000000000000000000000000000000000000000000000000000000001000000000000000000000000000000000000000000000000000000010000000000000000000000000000000000000000000000000000000000000000000000010000200000000000000000000000000000000000000000000000000000000000000000000000000100000000400000000000000000000000000000000000000000000000000000000000000000000000000000000000000000000000000000000000000000000000000000000000000000000002000000000000000000000000",
      "type": "0x2",
      "effectiveGasPrice": "0xb2d05ff8"
    },
    {
      "transactionHash": "0xd76be587abdd16fe93fe013d422f6ef69ea1cff1eb29ac9428680c55f3e6446e",
      "transactionIndex": "0x4",
      "blockHash": "0x33e8ae01e913744017839552ca7dd1703345bfc34c7701913c33f9af3df74377",
      "blockNumber": "0x17bd43",
      "from": "0x6d1206D66faA79e9FBd249B48Aa55509071514a1",
      "to": "0x129400290d9d20e2Ff951683DA847be7aeC57Be2",
      "cumulativeGasUsed": "0x269270",
      "gasUsed": "0xd4dd",
      "contractAddress": null,
      "logs": [
        {
          "address": "0x129400290d9d20e2Ff951683DA847be7aeC57Be2",
          "topics": [
            "0xeeda149c76076b34d4b9d8896c2f7efc0d33d1c7b53ea3c5db490d64613f603a",
            "0x00000000000000000000000066adde90cb4f892c517c3ef579fffdbb2a726eed"
          ],
          "data": "0x",
          "blockHash": "0x33e8ae01e913744017839552ca7dd1703345bfc34c7701913c33f9af3df74377",
          "blockNumber": "0x17bd43",
          "transactionHash": "0xd76be587abdd16fe93fe013d422f6ef69ea1cff1eb29ac9428680c55f3e6446e",
          "transactionIndex": "0x4",
          "logIndex": "0x3",
          "removed": false
        }
      ],
      "status": "0x1",
      "logsBloom": "0x00000000000000002000000400000000000000000000000000000000000000000000000000000000000000000000000000000000000000000000000010000001000000000000000000000000000000000000000000000000000000010000000000000000000000000000000000000000000000000000000000000000000000000000200000000000000000000000000000000000000000000000000000000000000000000000000000000000400000000000000000000000000000000000000000000000000000000000000000000000000000000000000000000000000000000000000000000000000000200000000000000002000000000000000000000000",
      "type": "0x2",
      "effectiveGasPrice": "0xb2d05ff8"
    },
    {
      "transactionHash": "0x8ccb6d0b09cbb29dd072fe40da505d6c2738b75c99be23b197d05e05ee530776",
      "transactionIndex": "0xc",
      "blockHash": "0x33e8ae01e913744017839552ca7dd1703345bfc34c7701913c33f9af3df74377",
      "blockNumber": "0x17bd43",
      "from": "0x6d1206D66faA79e9FBd249B48Aa55509071514a1",
      "to": "0x24f6A729B094854F334162309485A0082B05DC4a",
      "cumulativeGasUsed": "0x2dac53",
      "gasUsed": "0xd10c",
      "contractAddress": null,
      "logs": [
        {
          "address": "0x24f6A729B094854F334162309485A0082B05DC4a",
          "topics": [
            "0xddf252ad1be2c89b69c2b068fc378daa952ba7f163c4a11628f55a4df523b3ef",
            "0x0000000000000000000000000000000000000000000000000000000000000000",
            "0x000000000000000000000000e520d5a75fcbbdaec7014a9de58846dcffb6b18d"
          ],
          "data": "0x000000000000000000000000000000000000000000000000000000003b9aca00",
          "blockHash": "0x33e8ae01e913744017839552ca7dd1703345bfc34c7701913c33f9af3df74377",
          "blockNumber": "0x17bd43",
          "transactionHash": "0x8ccb6d0b09cbb29dd072fe40da505d6c2738b75c99be23b197d05e05ee530776",
          "transactionIndex": "0xc",
          "logIndex": "0xb",
          "removed": false
        }
      ],
      "status": "0x1",
      "logsBloom": "0x00000000000000000000000000000000000000000004000000000000000000000000000000000000000000000000000000000000000000000000000100000000000000000000000000000008010000000000000000000000000000000000000200000000020000000000000000000800000000000000000000000010000000010000000000000000000000000000000000000000000000000000000000000000000000000000000100000000000000000000000000000000000000000000000000000002000000000000000000000000000000000000000000000000000020000000000000000000000000000000000000000000000000000000000000000000",
      "type": "0x2",
      "effectiveGasPrice": "0xb2d05ff8"
    },
    {
      "transactionHash": "0x7b5221748e8b06bb834e740742d180a3398ad705ab7c2dd8d2d73bbe4ff95bdc",
      "transactionIndex": "0xd",
      "blockHash": "0x33e8ae01e913744017839552ca7dd1703345bfc34c7701913c33f9af3df74377",
      "blockNumber": "0x17bd43",
      "from": "0x6d1206D66faA79e9FBd249B48Aa55509071514a1",
      "to": "0xC53E7008fE026Ab5871b06C42AD5E2086Ccb3dFd",
      "cumulativeGasUsed": "0x2e7d8f",
      "gasUsed": "0xd13c",
      "contractAddress": null,
      "logs": [
        {
          "address": "0xC53E7008fE026Ab5871b06C42AD5E2086Ccb3dFd",
          "topics": [
            "0xddf252ad1be2c89b69c2b068fc378daa952ba7f163c4a11628f55a4df523b3ef",
            "0x0000000000000000000000000000000000000000000000000000000000000000",
            "0x000000000000000000000000e520d5a75fcbbdaec7014a9de58846dcffb6b18d"
          ],
          "data": "0x00000000000000000000000000000000000000000000003635c9adc5dea00000",
          "blockHash": "0x33e8ae01e913744017839552ca7dd1703345bfc34c7701913c33f9af3df74377",
          "blockNumber": "0x17bd43",
          "transactionHash": "0x7b5221748e8b06bb834e740742d180a3398ad705ab7c2dd8d2d73bbe4ff95bdc",
          "transactionIndex": "0xd",
          "logIndex": "0xc",
          "removed": false
        }
      ],
      "status": "0x1",
      "logsBloom": "0x00000000000000000000000000000000000000000004000000000000000000000000000000000000000000000000000000000000000000000000000000800000000000000000000000000008000000000000000000000000000000000000000000000000020000000000000000000800000000000000000000000010000000010000000000000000000000000000020000000000000000000000000000000000000000000000000100000000000000000000000000000000000000000000000000000002000000000000000000000000000000000000000000000000000020000000000000000000000000000000000000000000000000000000000100000000",
      "type": "0x2",
      "effectiveGasPrice": "0xb2d05ff8"
    },
    {
      "transactionHash": "0xf07384e899fd18741a00df9ff11d7e0ac68ea30373f2a76047a1aa69ac4e26d4",
      "transactionIndex": "0xe",
      "blockHash": "0x33e8ae01e913744017839552ca7dd1703345bfc34c7701913c33f9af3df74377",
      "blockNumber": "0x17bd43",
      "from": "0x6d1206D66faA79e9FBd249B48Aa55509071514a1",
      "to": "0x24f6A729B094854F334162309485A0082B05DC4a",
      "cumulativeGasUsed": "0x2f0bcf",
      "gasUsed": "0x8e40",
      "contractAddress": null,
      "logs": [
        {
          "address": "0x24f6A729B094854F334162309485A0082B05DC4a",
          "topics": [
            "0xddf252ad1be2c89b69c2b068fc378daa952ba7f163c4a11628f55a4df523b3ef",
            "0x0000000000000000000000000000000000000000000000000000000000000000",
            "0x000000000000000000000000e520d5a75fcbbdaec7014a9de58846dcffb6b18d"
          ],
          "data": "0x000000000000000000000000000000000000000000000000000000003b9aca00",
          "blockHash": "0x33e8ae01e913744017839552ca7dd1703345bfc34c7701913c33f9af3df74377",
          "blockNumber": "0x17bd43",
          "transactionHash": "0xf07384e899fd18741a00df9ff11d7e0ac68ea30373f2a76047a1aa69ac4e26d4",
          "transactionIndex": "0xe",
          "logIndex": "0xd",
          "removed": false
        }
      ],
      "status": "0x1",
      "logsBloom": "0x00000000000000000000000000000000000000000004000000000000000000000000000000000000000000000000000000000000000000000000000100000000000000000000000000000008010000000000000000000000000000000000000200000000020000000000000000000800000000000000000000000010000000010000000000000000000000000000000000000000000000000000000000000000000000000000000100000000000000000000000000000000000000000000000000000002000000000000000000000000000000000000000000000000000020000000000000000000000000000000000000000000000000000000000000000000",
      "type": "0x2",
      "effectiveGasPrice": "0xb2d05ff8"
    },
    {
      "transactionHash": "0x53e5c4520112465ec4f66befceb29ed87b06617e17e6c7b9a81d4d0d4a4d5b0e",
      "transactionIndex": "0xf",
      "blockHash": "0x33e8ae01e913744017839552ca7dd1703345bfc34c7701913c33f9af3df74377",
      "blockNumber": "0x17bd43",
      "from": "0x6d1206D66faA79e9FBd249B48Aa55509071514a1",
      "to": "0xC53E7008fE026Ab5871b06C42AD5E2086Ccb3dFd",
      "cumulativeGasUsed": "0x2f9a3f",
      "gasUsed": "0x8e70",
      "contractAddress": null,
      "logs": [
        {
          "address": "0xC53E7008fE026Ab5871b06C42AD5E2086Ccb3dFd",
          "topics": [
            "0xddf252ad1be2c89b69c2b068fc378daa952ba7f163c4a11628f55a4df523b3ef",
            "0x0000000000000000000000000000000000000000000000000000000000000000",
            "0x000000000000000000000000e520d5a75fcbbdaec7014a9de58846dcffb6b18d"
          ],
          "data": "0x00000000000000000000000000000000000000000000003635c9adc5dea00000",
          "blockHash": "0x33e8ae01e913744017839552ca7dd1703345bfc34c7701913c33f9af3df74377",
          "blockNumber": "0x17bd43",
          "transactionHash": "0x53e5c4520112465ec4f66befceb29ed87b06617e17e6c7b9a81d4d0d4a4d5b0e",
          "transactionIndex": "0xf",
          "logIndex": "0xe",
          "removed": false
        }
      ],
      "status": "0x1",
      "logsBloom": "0x00000000000000000000000000000000000000000004000000000000000000000000000000000000000000000000000000000000000000000000000000800000000000000000000000000008000000000000000000000000000000000000000000000000020000000000000000000800000000000000000000000010000000010000000000000000000000000000020000000000000000000000000000000000000000000000000100000000000000000000000000000000000000000000000000000002000000000000000000000000000000000000000000000000000020000000000000000000000000000000000000000000000000000000000100000000",
      "type": "0x2",
      "effectiveGasPrice": "0xb2d05ff8"
    },
    {
      "transactionHash": "0xa30acbf227c54d35e44ed75650c29eba31564f0ae3c1b589145c7878cdafe2c0",
      "transactionIndex": "0x10",
      "blockHash": "0x33e8ae01e913744017839552ca7dd1703345bfc34c7701913c33f9af3df74377",
      "blockNumber": "0x17bd43",
      "from": "0x6d1206D66faA79e9FBd249B48Aa55509071514a1",
      "to": "0x24f6A729B094854F334162309485A0082B05DC4a",
      "cumulativeGasUsed": "0x30287f",
      "gasUsed": "0x8e40",
      "contractAddress": null,
      "logs": [
        {
          "address": "0x24f6A729B094854F334162309485A0082B05DC4a",
          "topics": [
            "0xddf252ad1be2c89b69c2b068fc378daa952ba7f163c4a11628f55a4df523b3ef",
            "0x0000000000000000000000000000000000000000000000000000000000000000",
            "0x000000000000000000000000e520d5a75fcbbdaec7014a9de58846dcffb6b18d"
          ],
          "data": "0x000000000000000000000000000000000000000000000000000000003b9aca00",
          "blockHash": "0x33e8ae01e913744017839552ca7dd1703345bfc34c7701913c33f9af3df74377",
          "blockNumber": "0x17bd43",
          "transactionHash": "0xa30acbf227c54d35e44ed75650c29eba31564f0ae3c1b589145c7878cdafe2c0",
          "transactionIndex": "0x10",
          "logIndex": "0xf",
          "removed": false
        }
      ],
      "status": "0x1",
      "logsBloom": "0x00000000000000000000000000000000000000000004000000000000000000000000000000000000000000000000000000000000000000000000000100000000000000000000000000000008010000000000000000000000000000000000000200000000020000000000000000000800000000000000000000000010000000010000000000000000000000000000000000000000000000000000000000000000000000000000000100000000000000000000000000000000000000000000000000000002000000000000000000000000000000000000000000000000000020000000000000000000000000000000000000000000000000000000000000000000",
      "type": "0x2",
      "effectiveGasPrice": "0xb2d05ff8"
    },
    {
      "transactionHash": "0x5f54bc351537b30344749812260a867b8d9fbbc4fb03db892ab2d4039ce0469a",
      "transactionIndex": "0x11",
      "blockHash": "0x33e8ae01e913744017839552ca7dd1703345bfc34c7701913c33f9af3df74377",
      "blockNumber": "0x17bd43",
      "from": "0x6d1206D66faA79e9FBd249B48Aa55509071514a1",
      "to": "0xC53E7008fE026Ab5871b06C42AD5E2086Ccb3dFd",
      "cumulativeGasUsed": "0x30b6ef",
      "gasUsed": "0x8e70",
      "contractAddress": null,
      "logs": [
        {
          "address": "0xC53E7008fE026Ab5871b06C42AD5E2086Ccb3dFd",
          "topics": [
            "0xddf252ad1be2c89b69c2b068fc378daa952ba7f163c4a11628f55a4df523b3ef",
            "0x0000000000000000000000000000000000000000000000000000000000000000",
            "0x000000000000000000000000e520d5a75fcbbdaec7014a9de58846dcffb6b18d"
          ],
          "data": "0x00000000000000000000000000000000000000000000003635c9adc5dea00000",
          "blockHash": "0x33e8ae01e913744017839552ca7dd1703345bfc34c7701913c33f9af3df74377",
          "blockNumber": "0x17bd43",
          "transactionHash": "0x5f54bc351537b30344749812260a867b8d9fbbc4fb03db892ab2d4039ce0469a",
          "transactionIndex": "0x11",
          "logIndex": "0x10",
          "removed": false
        }
      ],
      "status": "0x1",
      "logsBloom": "0x00000000000000000000000000000000000000000004000000000000000000000000000000000000000000000000000000000000000000000000000000800000000000000000000000000008000000000000000000000000000000000000000000000000020000000000000000000800000000000000000000000010000000010000000000000000000000000000020000000000000000000000000000000000000000000000000100000000000000000000000000000000000000000000000000000002000000000000000000000000000000000000000000000000000020000000000000000000000000000000000000000000000000000000000100000000",
      "type": "0x2",
      "effectiveGasPrice": "0xb2d05ff8"
    },
    {
      "transactionHash": "0x453811582a92ef41c0afd1bc795e1ad2abd59f12553d458fe74dcb49668e8632",
      "transactionIndex": "0x12",
      "blockHash": "0x33e8ae01e913744017839552ca7dd1703345bfc34c7701913c33f9af3df74377",
      "blockNumber": "0x17bd43",
      "from": "0x6d1206D66faA79e9FBd249B48Aa55509071514a1",
      "to": "0x24f6A729B094854F334162309485A0082B05DC4a",
      "cumulativeGasUsed": "0x31452f",
      "gasUsed": "0x8e40",
      "contractAddress": null,
      "logs": [
        {
          "address": "0x24f6A729B094854F334162309485A0082B05DC4a",
          "topics": [
            "0xddf252ad1be2c89b69c2b068fc378daa952ba7f163c4a11628f55a4df523b3ef",
            "0x0000000000000000000000000000000000000000000000000000000000000000",
            "0x000000000000000000000000e520d5a75fcbbdaec7014a9de58846dcffb6b18d"
          ],
          "data": "0x000000000000000000000000000000000000000000000000000000003b9aca00",
          "blockHash": "0x33e8ae01e913744017839552ca7dd1703345bfc34c7701913c33f9af3df74377",
          "blockNumber": "0x17bd43",
          "transactionHash": "0x453811582a92ef41c0afd1bc795e1ad2abd59f12553d458fe74dcb49668e8632",
          "transactionIndex": "0x12",
          "logIndex": "0x11",
          "removed": false
        }
      ],
      "status": "0x1",
      "logsBloom": "0x00000000000000000000000000000000000000000004000000000000000000000000000000000000000000000000000000000000000000000000000100000000000000000000000000000008010000000000000000000000000000000000000200000000020000000000000000000800000000000000000000000010000000010000000000000000000000000000000000000000000000000000000000000000000000000000000100000000000000000000000000000000000000000000000000000002000000000000000000000000000000000000000000000000000020000000000000000000000000000000000000000000000000000000000000000000",
      "type": "0x2",
      "effectiveGasPrice": "0xb2d05ff8"
    },
    {
      "transactionHash": "0xa6827c3d9cfe292fb3ad421416375f927f7cb673cff4667f5d14a9846368911d",
      "transactionIndex": "0x13",
      "blockHash": "0x33e8ae01e913744017839552ca7dd1703345bfc34c7701913c33f9af3df74377",
      "blockNumber": "0x17bd43",
      "from": "0x6d1206D66faA79e9FBd249B48Aa55509071514a1",
      "to": "0xC53E7008fE026Ab5871b06C42AD5E2086Ccb3dFd",
      "cumulativeGasUsed": "0x31d39f",
      "gasUsed": "0x8e70",
      "contractAddress": null,
      "logs": [
        {
          "address": "0xC53E7008fE026Ab5871b06C42AD5E2086Ccb3dFd",
          "topics": [
            "0xddf252ad1be2c89b69c2b068fc378daa952ba7f163c4a11628f55a4df523b3ef",
            "0x0000000000000000000000000000000000000000000000000000000000000000",
            "0x000000000000000000000000e520d5a75fcbbdaec7014a9de58846dcffb6b18d"
          ],
          "data": "0x00000000000000000000000000000000000000000000003635c9adc5dea00000",
          "blockHash": "0x33e8ae01e913744017839552ca7dd1703345bfc34c7701913c33f9af3df74377",
          "blockNumber": "0x17bd43",
          "transactionHash": "0xa6827c3d9cfe292fb3ad421416375f927f7cb673cff4667f5d14a9846368911d",
          "transactionIndex": "0x13",
          "logIndex": "0x12",
          "removed": false
        }
      ],
      "status": "0x1",
      "logsBloom": "0x00000000000000000000000000000000000000000004000000000000000000000000000000000000000000000000000000000000000000000000000000800000000000000000000000000008000000000000000000000000000000000000000000000000020000000000000000000800000000000000000000000010000000010000000000000000000000000000020000000000000000000000000000000000000000000000000100000000000000000000000000000000000000000000000000000002000000000000000000000000000000000000000000000000000020000000000000000000000000000000000000000000000000000000000100000000",
      "type": "0x2",
      "effectiveGasPrice": "0xb2d05ff8"
    },
    {
      "transactionHash": "0xf179f25d524b06977df7bf573217ea6ea12054de494dcd6c3acd6e2239fb3a76",
      "transactionIndex": "0x14",
      "blockHash": "0x33e8ae01e913744017839552ca7dd1703345bfc34c7701913c33f9af3df74377",
      "blockNumber": "0x17bd43",
      "from": "0x6d1206D66faA79e9FBd249B48Aa55509071514a1",
      "to": "0x24f6A729B094854F334162309485A0082B05DC4a",
      "cumulativeGasUsed": "0x3261df",
      "gasUsed": "0x8e40",
      "contractAddress": null,
      "logs": [
        {
          "address": "0x24f6A729B094854F334162309485A0082B05DC4a",
          "topics": [
            "0xddf252ad1be2c89b69c2b068fc378daa952ba7f163c4a11628f55a4df523b3ef",
            "0x0000000000000000000000000000000000000000000000000000000000000000",
            "0x000000000000000000000000e520d5a75fcbbdaec7014a9de58846dcffb6b18d"
          ],
          "data": "0x000000000000000000000000000000000000000000000000000000003b9aca00",
          "blockHash": "0x33e8ae01e913744017839552ca7dd1703345bfc34c7701913c33f9af3df74377",
          "blockNumber": "0x17bd43",
          "transactionHash": "0xf179f25d524b06977df7bf573217ea6ea12054de494dcd6c3acd6e2239fb3a76",
          "transactionIndex": "0x14",
          "logIndex": "0x13",
          "removed": false
        }
      ],
      "status": "0x1",
      "logsBloom": "0x00000000000000000000000000000000000000000004000000000000000000000000000000000000000000000000000000000000000000000000000100000000000000000000000000000008010000000000000000000000000000000000000200000000020000000000000000000800000000000000000000000010000000010000000000000000000000000000000000000000000000000000000000000000000000000000000100000000000000000000000000000000000000000000000000000002000000000000000000000000000000000000000000000000000020000000000000000000000000000000000000000000000000000000000000000000",
      "type": "0x2",
      "effectiveGasPrice": "0xb2d05ff8"
    },
    {
      "transactionHash": "0xd022d48c1d53167b5fdccd625dfa5bec381d6cbad70e746f05462b5ab3c31d3b",
      "transactionIndex": "0x15",
      "blockHash": "0x33e8ae01e913744017839552ca7dd1703345bfc34c7701913c33f9af3df74377",
      "blockNumber": "0x17bd43",
      "from": "0x6d1206D66faA79e9FBd249B48Aa55509071514a1",
      "to": "0xC53E7008fE026Ab5871b06C42AD5E2086Ccb3dFd",
      "cumulativeGasUsed": "0x32f04f",
      "gasUsed": "0x8e70",
      "contractAddress": null,
      "logs": [
        {
          "address": "0xC53E7008fE026Ab5871b06C42AD5E2086Ccb3dFd",
          "topics": [
            "0xddf252ad1be2c89b69c2b068fc378daa952ba7f163c4a11628f55a4df523b3ef",
            "0x0000000000000000000000000000000000000000000000000000000000000000",
            "0x000000000000000000000000e520d5a75fcbbdaec7014a9de58846dcffb6b18d"
          ],
          "data": "0x00000000000000000000000000000000000000000000003635c9adc5dea00000",
          "blockHash": "0x33e8ae01e913744017839552ca7dd1703345bfc34c7701913c33f9af3df74377",
          "blockNumber": "0x17bd43",
          "transactionHash": "0xd022d48c1d53167b5fdccd625dfa5bec381d6cbad70e746f05462b5ab3c31d3b",
          "transactionIndex": "0x15",
          "logIndex": "0x14",
          "removed": false
        }
      ],
      "status": "0x1",
      "logsBloom": "0x00000000000000000000000000000000000000000004000000000000000000000000000000000000000000000000000000000000000000000000000000800000000000000000000000000008000000000000000000000000000000000000000000000000020000000000000000000800000000000000000000000010000000010000000000000000000000000000020000000000000000000000000000000000000000000000000100000000000000000000000000000000000000000000000000000002000000000000000000000000000000000000000000000000000020000000000000000000000000000000000000000000000000000000000100000000",
      "type": "0x2",
      "effectiveGasPrice": "0xb2d05ff8"
    }
  ],
  "libraries": [],
  "pending": [
    "0x32f0f3d426b14d62f365c8b09944516e36c9ce66ff9514483e9f53348d0db795",
    "0x9dc8ea8f1b838b54e8a399ab7072627b8d505ae8137dca525e81fc39679c7230",
    "0xf2a3d1865cb5f0d7abb129a331bac0ef92d4c73f8ea57eca35604f093a4e5bbd",
    "0xe05220cf1c7f494476760ddf649b09b25f67169bb2c5c7ab5fcb0dda558a55d4",
    "0xe6ea5ed95f082e8fb62ffcdd7d144c686b83b6f35262d9408054e4d9223fe23d",
    "0xfa273751e115994371681f5f531ea793b5e61d9c5a8ed5cb69b95832a05cd057",
    "0x7a3e2663e8d761626b5ae0098965c0dda7839b3c96c058e3ca26304aac39f6fb"
  ],
  "returns": {},
  "timestamp": 1707798250,
  "chain": 168587773,
  "multi": false,
  "commit": "41bfcc3"
}