{
  "transactions": [
    {
      "hash": "0x811c787d87732791f3b0ac6ecf6cdbbeafda1b20ebc7a0a98f0530ade854640e",
      "transactionType": "CALL",
      "contractName": null,
      "contractAddress": "0x129400290d9d20e2Ff951683DA847be7aeC57Be2",
      "function": "claim(address)",
      "arguments": [
        "0x66adDE90Cb4f892C517C3eF579FfFDBb2a726eEd"
      ],
      "transaction": {
        "type": "0x02",
        "from": "0x66adde90cb4f892c517c3ef579fffdbb2a726eed",
        "to": "0x129400290d9d20e2ff951683da847be7aec57be2",
        "gas": "0x15d7b",
        "value": "0x0",
        "data": "0x1e83409a00000000000000000000000066adde90cb4f892c517c3ef579fffdbb2a726eed",
        "nonce": "0x0",
        "accessList": []
      },
      "additionalContracts": [],
      "isFixedGasLimit": false
    }
  ],
  "receipts": [
    {
      "transactionHash": "0x811c787d87732791f3b0ac6ecf6cdbbeafda1b20ebc7a0a98f0530ade854640e",
      "transactionIndex": "0x1",
      "blockHash": "0x5b769bd0339b952853f266b9b7d81a1464413ab9340cbff5ff12a85c3eaf918d",
      "blockNumber": "0x17c0fd",
      "from": "0x66adDE90Cb4f892C517C3eF579FfFDBb2a726eEd",
      "to": "0x129400290d9d20e2Ff951683DA847be7aeC57Be2",
      "cumulativeGasUsed": "0x1b45a",
      "gasUsed": "0xfd05",
      "contractAddress": null,
      "logs": [
        {
          "address": "0xC53E7008fE026Ab5871b06C42AD5E2086Ccb3dFd",
          "topics": [
            "0xddf252ad1be2c89b69c2b068fc378daa952ba7f163c4a11628f55a4df523b3ef",
            "0x000000000000000000000000129400290d9d20e2ff951683da847be7aec57be2",
            "0x00000000000000000000000066adde90cb4f892c517c3ef579fffdbb2a726eed"
          ],
          "data": "0x00000000000000000000000000000000000000000000000ad78ebc5ac6200000",
          "blockHash": "0x5b769bd0339b952853f266b9b7d81a1464413ab9340cbff5ff12a85c3eaf918d",
          "blockNumber": "0x17c0fd",
          "transactionHash": "0x811c787d87732791f3b0ac6ecf6cdbbeafda1b20ebc7a0a98f0530ade854640e",
          "transactionIndex": "0x1",
          "logIndex": "0x0",
          "removed": false
        },
        {
          "address": "0x129400290d9d20e2Ff951683DA847be7aeC57Be2",
          "topics": [
            "0x47cee97cb7acd717b3c0aa1435d004cd5b3c8c57d70dbceb4e4458bbd60e39d4",
            "0x00000000000000000000000066adde90cb4f892c517c3ef579fffdbb2a726eed"
          ],
          "data": "0x00000000000000000000000000000000000000000000000ad78ebc5ac6200000",
          "blockHash": "0x5b769bd0339b952853f266b9b7d81a1464413ab9340cbff5ff12a85c3eaf918d",
          "blockNumber": "0x17c0fd",
          "transactionHash": "0x811c787d87732791f3b0ac6ecf6cdbbeafda1b20ebc7a0a98f0530ade854640e",
          "transactionIndex": "0x1",
          "logIndex": "0x1",
          "removed": false
        }
      ],
      "status": "0x1",
      "logsBloom": "0x00000000000000002000000400000000000000000000000000000000000000008000000000000000000000000000000000000010000000000100000010800000000000000000000000000008000000000000000000000000000000010000000000000000000000000000000000000000000000000000000000000010000000000000200000000000000000000000020008000000000000000000000000000000000000000000000000000000000000000000000000020000000000000000000000004002000000000000000000000000000000000000000000000000000000000000000000000000000000200000000000000000000000000000000100000000",
      "type": "0x2",
      "effectiveGasPrice": "0xb2d05fe4"
    }
  ],
  "libraries": [],
  "pending": [],
  "returns": {},
  "timestamp": 1707800158,
  "chain": 168587773,
  "multi": false,
  "commit": "f941149"
}