{
  "transactions": [
    {
      "hash": "0x811c787d87732791f3b0ac6ecf6cdbbeafda1b20ebc7a0a98f0530ade854640e",
      "transactionType": "CALL",
      "contractName": null,
      "contractAddress": "0x129400290d9d20e2Ff951683DA847be7aeC57Be2",
      "function": "claim(address)",
      "arguments": [
        "0x66adDE90Cb4f892C517C3eF579FfFDBb2a726eEd"
      ],
      "transaction": {
        "type": "0x02",
        "from": "0x66adde90cb4f892c517c3ef579fffdbb2a726eed",
        "to": "0x129400290d9d20e2ff951683da847be7aec57be2",
        "gas": "0x15d7b",
        "value": "0x0",
        "data": "0x1e83409a00000000000000000000000066adde90cb4f892c517c3ef579fffdbb2a726eed",
        "nonce": "0x0",
        "accessList": []
      },
      "additionalContracts": [],
      "isFixedGasLimit": false
    }
  ],
  "receipts": [],
  "libraries": [],
  "pending": [
    "0x811c787d87732791f3b0ac6ecf6cdbbeafda1b20ebc7a0a98f0530ade854640e"
  ],
  "returns": {},
  "timestamp": 1707800151,
  "chain": 168587773,
  "multi": false,
  "commit": "f941149"
}