{
  "transactions": [
    {
      "hash": "0x086951dcb1eac8513e7aedb7ac88d123f6a355bf231df56791f085ef957a65e4",
      "transactionType": "CALL",
      "contractName": null,
      "contractAddress": "0xC53E7008fE026Ab5871b06C42AD5E2086Ccb3dFd",
      "function": "approve(address,uint256)",
      "arguments": [
        "0xb31817E3B06C0D7E871d75D7929fAAe24624B5C9",
        "2000000000000000000"
      ],
      "transaction": {
        "type": "0x02",
        "from": "0xe520d5a75fcbbdaec7014a9de58846dcffb6b18d",
        "to": "0xc53e7008fe026ab5871b06c42ad5e2086ccb3dfd",
        "gas": "0x1090a",
        "value": "0x0",
        "data": "0x095ea7b3000000000000000000000000b31817e3b06c0d7e871d75d7929faae24624b5c90000000000000000000000000000000000000000000000001bc16d674ec80000",
        "nonce": "0x0",
        "accessList": []
      },
      "additionalContracts": [],
      "isFixedGasLimit": false
    },
    {
      "hash": "0x0b5dba1657836418ba4840d3b965b61512de45590a1e453d5a66c393770ec7fb",
      "transactionType": "CALL",
      "contractName": null,
      "contractAddress": "0xb31817E3B06C0D7E871d75D7929fAAe24624B5C9",
      "function": "join(address)",
      "arguments": [
        "0xE520D5A75fCbbdAeC7014a9de58846dCFFB6B18d"
      ],
      "transaction": {
        "type": "0x02",
        "from": "0xe520d5a75fcbbdaec7014a9de58846dcffb6b18d",
        "to": "0xb31817e3b06c0d7e871d75d7929faae24624b5c9",
        "gas": "0x327d9",
        "value": "0x0",
        "data": "0x28ffe6c8000000000000000000000000e520d5a75fcbbdaec7014a9de58846dcffb6b18d",
        "nonce": "0x1",
        "accessList": []
      },
      "additionalContracts": [],
      "isFixedGasLimit": false
    },
    {
      "hash": "0x2f7553f939fbb69103ffcf0c1594e254fcf750e7e264254e941353d0068a6ceb",
      "transactionType": "CALL",
      "contractName": null,
      "contractAddress": "0xC53E7008fE026Ab5871b06C42AD5E2086Ccb3dFd",
      "function": "approve(address,uint256)",
      "arguments": [
        "0xb31817E3B06C0D7E871d75D7929fAAe24624B5C9",
        "2000000000000000000"
      ],
      "transaction": {
        "type": "0x02",
        "from": "0xe520d5a75fcbbdaec7014a9de58846dcffb6b18d",
        "to": "0xc53e7008fe026ab5871b06c42ad5e2086ccb3dfd",
        "gas": "0x1090a",
        "value": "0x0",
        "data": "0x095ea7b3000000000000000000000000b31817e3b06c0d7e871d75d7929faae24624b5c90000000000000000000000000000000000000000000000001bc16d674ec80000",
        "nonce": "0x2",
        "accessList": []
      },
      "additionalContracts": [],
      "isFixedGasLimit": false
    },
    {
      "hash": "0x514adc56f876049f6a7e098dc1b5980fecfbd64b410ed8f0c82bec9af89ce17b",
      "transactionType": "CALL",
      "contractName": null,
      "contractAddress": "0xb31817E3B06C0D7E871d75D7929fAAe24624B5C9",
      "function": "join(address)",
      "arguments": [
        "0x66adDE90Cb4f892C517C3eF579FfFDBb2a726eEd"
      ],
      "transaction": {
        "type": "0x02",
        "from": "0xe520d5a75fcbbdaec7014a9de58846dcffb6b18d",
        "to": "0xb31817e3b06c0d7e871d75d7929faae24624b5c9",
        "gas": "0x2324d",
        "value": "0x0",
        "data": "0x28ffe6c800000000000000000000000066adde90cb4f892c517c3ef579fffdbb2a726eed",
        "nonce": "0x3",
        "accessList": []
      },
      "additionalContracts": [],
      "isFixedGasLimit": false
    },
    {
      "hash": "0x6b0d80888d390ff1223066a453f21fdff70d5d1be92aa83faae252d67c0b2f18",
      "transactionType": "CALL",
      "contractName": null,
      "contractAddress": "0xC53E7008fE026Ab5871b06C42AD5E2086Ccb3dFd",
      "function": "approve(address,uint256)",
      "arguments": [
        "0xb31817E3B06C0D7E871d75D7929fAAe24624B5C9",
        "2000000000000000000"
      ],
      "transaction": {
        "type": "0x02",
        "from": "0xe520d5a75fcbbdaec7014a9de58846dcffb6b18d",
        "to": "0xc53e7008fe026ab5871b06c42ad5e2086ccb3dfd",
        "gas": "0x1090a",
        "value": "0x0",
        "data": "0x095ea7b3000000000000000000000000b31817e3b06c0d7e871d75d7929faae24624b5c90000000000000000000000000000000000000000000000001bc16d674ec80000",
        "nonce": "0x4",
        "accessList": []
      },
      "additionalContracts": [],
      "isFixedGasLimit": false
    },
    {
      "hash": "0x2f7cf00c268ce16cc598bb54063a50e8f31d485929b703756d5bec3d33e1b38a",
      "transactionType": "CALL",
      "contractName": null,
      "contractAddress": "0xb31817E3B06C0D7E871d75D7929fAAe24624B5C9",
      "function": "join(address)",
      "arguments": [
        "0x34f196FF027591C061f26E5138129A69F10BbE6d"
      ],
      "transaction": {
        "type": "0x02",
        "from": "0xe520d5a75fcbbdaec7014a9de58846dcffb6b18d",
        "to": "0xb31817e3b06c0d7e871d75d7929faae24624b5c9",
        "gas": "0x2324d",
        "value": "0x0",
        "data": "0x28ffe6c800000000000000000000000034f196ff027591c061f26e5138129a69f10bbe6d",
        "nonce": "0x5",
        "accessList": []
      },
      "additionalContracts": [],
      "isFixedGasLimit": false
    },
    {
      "hash": "0x3eef9bedb3f606b55e46dd2b8914fbe92ba8ae2b190ec693a705933bf877d549",
      "transactionType": "CALL",
      "contractName": null,
      "contractAddress": "0xC53E7008fE026Ab5871b06C42AD5E2086Ccb3dFd",
      "function": "approve(address,uint256)",
      "arguments": [
        "0xb31817E3B06C0D7E871d75D7929fAAe24624B5C9",
        "2000000000000000000"
      ],
      "transaction": {
        "type": "0x02",
        "from": "0xe520d5a75fcbbdaec7014a9de58846dcffb6b18d",
        "to": "0xc53e7008fe026ab5871b06c42ad5e2086ccb3dfd",
        "gas": "0x1090a",
        "value": "0x0",
        "data": "0x095ea7b3000000000000000000000000b31817e3b06c0d7e871d75d7929faae24624b5c90000000000000000000000000000000000000000000000001bc16d674ec80000",
        "nonce": "0x6",
        "accessList": []
      },
      "additionalContracts": [],
      "isFixedGasLimit": false
    },
    {
      "hash": null,
      "transactionType": "CALL",
      "contractName": null,
      "contractAddress": "0xb31817E3B06C0D7E871d75D7929fAAe24624B5C9",
      "function": "join(address)",
      "arguments": [
        "0x03a37e88aD865469C196f484AE32CDa71eB24Cf1"
      ],
      "transaction": {
        "type": "0x02",
        "from": "0xe520d5a75fcbbdaec7014a9de58846dcffb6b18d",
        "to": "0xb31817e3b06c0d7e871d75d7929faae24624b5c9",
        "gas": "0x2324d",
        "value": "0x0",
        "data": "0x28ffe6c800000000000000000000000003a37e88ad865469c196f484ae32cda71eb24cf1",
        "nonce": "0x7",
        "accessList": []
      },
      "additionalContracts": [],
      "isFixedGasLimit": false
    },
    {
      "hash": null,
      "transactionType": "CALL",
      "contractName": null,
      "contractAddress": "0xC53E7008fE026Ab5871b06C42AD5E2086Ccb3dFd",
      "function": "approve(address,uint256)",
      "arguments": [
        "0xb31817E3B06C0D7E871d75D7929fAAe24624B5C9",
        "2000000000000000000"
      ],
      "transaction": {
        "type": "0x02",
        "from": "0xe520d5a75fcbbdaec7014a9de58846dcffb6b18d",
        "to": "0xc53e7008fe026ab5871b06c42ad5e2086ccb3dfd",
        "gas": "0x1090a",
        "value": "0x0",
        "data": "0x095ea7b3000000000000000000000000b31817e3b06c0d7e871d75d7929faae24624b5c90000000000000000000000000000000000000000000000001bc16d674ec80000",
        "nonce": "0x8",
        "accessList": []
      },
      "additionalContracts": [],
      "isFixedGasLimit": false
    },
    {
      "hash": null,
      "transactionType": "CALL",
      "contractName": null,
      "contractAddress": "0xb31817E3B06C0D7E871d75D7929fAAe24624B5C9",
      "function": "join(address)",
      "arguments": [
        "0x710844221954055d99efa7a3B6a9f8409264b256"
      ],
      "transaction": {
        "type": "0x02",
        "from": "0xe520d5a75fcbbdaec7014a9de58846dcffb6b18d",
        "to": "0xb31817e3b06c0d7e871d75d7929faae24624b5c9",
        "gas": "0x2324d",
        "value": "0x0",
        "data": "0x28ffe6c8000000000000000000000000710844221954055d99efa7a3b6a9f8409264b256",
        "nonce": "0x9",
        "accessList": []
      },
      "additionalContracts": [],
      "isFixedGasLimit": false
    },
    {
      "hash": null,
      "transactionType": "CALL",
      "contractName": null,
      "contractAddress": "0x7acbc214042016F6fbdE1c3bC37a4D6b4808B19e",
      "function": "setRandomNumber(uint256,uint256)",
      "arguments": [
        "1",
        "2"
      ],
      "transaction": {
        "type": "0x02",
        "from": "0x6d1206d66faa79e9fbd249b48aa55509071514a1",
        "to": "0x7acbc214042016f6fbde1c3bc37a4d6b4808b19e",
        "gas": "0xf7c9",
        "value": "0x0",
        "data": "0x5da4fabc00000000000000000000000000000000000000000000000000000000000000010000000000000000000000000000000000000000000000000000000000000002",
        "nonce": "0x22",
        "accessList": []
      },
      "additionalContracts": [],
      "isFixedGasLimit": false
    },
    {
      "hash": null,
      "transactionType": "CALL",
      "contractName": null,
      "contractAddress": "0xb31817E3B06C0D7E871d75D7929fAAe24624B5C9",
      "function": "selectWinner(uint256)",
      "arguments": [
        "0"
      ],
      "transaction": {
        "type": "0x02",
        "from": "0x6d1206d66faa79e9fbd249b48aa55509071514a1",
        "to": "0xb31817e3b06c0d7e871d75d7929faae24624b5c9",
        "gas": "0x381cc",
        "value": "0x0",
        "data": "0x4c524be40000000000000000000000000000000000000000000000000000000000000000",
        "nonce": "0x23",
        "accessList": []
      },
      "additionalContracts": [],
      "isFixedGasLimit": false
    }
  ],
  "receipts": [
    {
      "transactionHash": "0x086951dcb1eac8513e7aedb7ac88d123f6a355bf231df56791f085ef957a65e4",
      "transactionIndex": "0x1",
      "blockHash": "0x6db00a8332ae1a2de3a6f3d44d6127a47d489fe7232586c701955cca1e8fe23d",
      "blockNumber": "0x17c144",
      "from": "0xE520D5A75fCbbdAeC7014a9de58846dCFFB6B18d",
      "to": "0xC53E7008fE026Ab5871b06C42AD5E2086Ccb3dFd",
      "cumulativeGasUsed": "0x16c9b",
      "gasUsed": "0xb53a",
      "contractAddress": null,
      "logs": [
        {
          "address": "0xC53E7008fE026Ab5871b06C42AD5E2086Ccb3dFd",
          "topics": [
            "0x8c5be1e5ebec7d5bd14f71427d1e84f3dd0314c0f7b2291e5b200ac8c7c3b925",
            "0x000000000000000000000000e520d5a75fcbbdaec7014a9de58846dcffb6b18d",
            "0x000000000000000000000000b31817e3b06c0d7e871d75d7929faae24624b5c9"
          ],
          "data": "0x0000000000000000000000000000000000000000000000001bc16d674ec80000",
          "blockHash": "0x6db00a8332ae1a2de3a6f3d44d6127a47d489fe7232586c701955cca1e8fe23d",
          "blockNumber": "0x17c144",
          "transactionHash": "0x086951dcb1eac8513e7aedb7ac88d123f6a355bf231df56791f085ef957a65e4",
          "transactionIndex": "0x1",
          "logIndex": "0x0",
          "removed": false
        }
      ],
      "status": "0x1",
      "logsBloom": "0x00000000000000000000000000000000000000000004000000000000000000000000000000000000000000000000000000000000000000000000000000a00000000000000000000000000008000000000000000000000040000000000000000000000000000000000000000000000000000000000000000000000000000000010000000000000000000000000000020000000000000000000000000000000000020000000000000100000000000000000000000000000000000000000000000000000000000000010000000000000000000000000000000000000000000000000010000000000000000000000000000000000000000000000000000100000000",
      "type": "0x2",
      "effectiveGasPrice": "0xb2d05fe6"
    },
    {
      "transactionHash": "0x0b5dba1657836418ba4840d3b965b61512de45590a1e453d5a66c393770ec7fb",
      "transactionIndex": "0x1",
      "blockHash": "0xb09f8aac40948c6aaeefb0da1e44889c049df20129252d51546aba803e77e939",
      "blockNumber": "0x17c148",
      "from": "0xE520D5A75fCbbdAeC7014a9de58846dCFFB6B18d",
      "to": "0xb31817E3B06C0D7E871d75D7929fAAe24624B5C9",
      "cumulativeGasUsed": "0x3430c",
      "gasUsed": "0x248df",
      "contractAddress": null,
      "logs": [
        {
          "address": "0xC53E7008fE026Ab5871b06C42AD5E2086Ccb3dFd",
          "topics": [
            "0xddf252ad1be2c89b69c2b068fc378daa952ba7f163c4a11628f55a4df523b3ef",
            "0x000000000000000000000000e520d5a75fcbbdaec7014a9de58846dcffb6b18d",
            "0x000000000000000000000000b31817e3b06c0d7e871d75d7929faae24624b5c9"
          ],
          "data": "0x0000000000000000000000000000000000000000000000001bc16d674ec80000",
          "blockHash": "0xb09f8aac40948c6aaeefb0da1e44889c049df20129252d51546aba803e77e939",
          "blockNumber": "0x17c148",
          "transactionHash": "0x0b5dba1657836418ba4840d3b965b61512de45590a1e453d5a66c393770ec7fb",
          "transactionIndex": "0x1",
          "logIndex": "0x0",
          "removed": false
        },
        {
          "address": "0xb31817E3B06C0D7E871d75D7929fAAe24624B5C9",
          "topics": [
            "0xbca387acb0ba7d06e329c4372885bb664f19a98153ccf3e74e56c136bf0e88c4",
            "0x000000000000000000000000e520d5a75fcbbdaec7014a9de58846dcffb6b18d",
            "0x0000000000000000000000000000000000000000000000000000000000000001"
          ],
          "data": "0x0000000000000000000000000000000000000000000000000000000000000000",
          "blockHash": "0xb09f8aac40948c6aaeefb0da1e44889c049df20129252d51546aba803e77e939",
          "blockNumber": "0x17c148",
          "transactionHash": "0x0b5dba1657836418ba4840d3b965b61512de45590a1e453d5a66c393770ec7fb",
          "transactionIndex": "0x1",
          "logIndex": "0x1",
          "removed": false
        }
      ],
      "status": "0x1",
      "logsBloom": "0x00000000000000000000000000000000000000000004000000000000000000000000000000000000000000000000000000000000000000000000000000840000080000000000000000000008000000000000000000040040000000000000000000000000000000000000000080000000000200000000000000000010000000010200000000000000000000000000020000000000000000000000000000000000000000000000000100000000000000000000000000000000000000000000000000000002000000010000000001200000000000000000000000000000000040000000000000000000000000000000000000000000000000000000000100000000",
      "type": "0x2",
      "effectiveGasPrice": "0xb2d05fe4"
    },
    {
      "transactionHash": "0x2f7553f939fbb69103ffcf0c1594e254fcf750e7e264254e941353d0068a6ceb",
      "transactionIndex": "0x2",
      "blockHash": "0x53a43fe394807080291bba8ba4ae72025783843d5fced4ebd3f462b4abf58cd9",
      "blockNumber": "0x17c14d",
      "from": "0xE520D5A75fCbbdAeC7014a9de58846dCFFB6B18d",
      "to": "0xC53E7008fE026Ab5871b06C42AD5E2086Ccb3dFd",
      "cumulativeGasUsed": "0x351c6",
      "gasUsed": "0xb53a",
      "contractAddress": null,
      "logs": [
        {
          "address": "0xC53E7008fE026Ab5871b06C42AD5E2086Ccb3dFd",
          "topics": [
            "0x8c5be1e5ebec7d5bd14f71427d1e84f3dd0314c0f7b2291e5b200ac8c7c3b925",
            "0x000000000000000000000000e520d5a75fcbbdaec7014a9de58846dcffb6b18d",
            "0x000000000000000000000000b31817e3b06c0d7e871d75d7929faae24624b5c9"
          ],
          "data": "0x0000000000000000000000000000000000000000000000001bc16d674ec80000",
          "blockHash": "0x53a43fe394807080291bba8ba4ae72025783843d5fced4ebd3f462b4abf58cd9",
          "blockNumber": "0x17c14d",
          "transactionHash": "0x2f7553f939fbb69103ffcf0c1594e254fcf750e7e264254e941353d0068a6ceb",
          "transactionIndex": "0x2",
          "logIndex": "0x1",
          "removed": false
        }
      ],
      "status": "0x1",
      "logsBloom": "0x00000000000000000000000000000000000000000004000000000000000000000000000000000000000000000000000000000000000000000000000000a00000000000000000000000000008000000000000000000000040000000000000000000000000000000000000000000000000000000000000000000000000000000010000000000000000000000000000020000000000000000000000000000000000020000000000000100000000000000000000000000000000000000000000000000000000000000010000000000000000000000000000000000000000000000000010000000000000000000000000000000000000000000000000000100000000",
      "type": "0x2",
      "effectiveGasPrice": "0xb2d05fe2"
    },
    {
      "transactionHash": "0x514adc56f876049f6a7e098dc1b5980fecfbd64b410ed8f0c82bec9af89ce17b",
      "transactionIndex": "0x1",
      "blockHash": "0xae2da9eb0f2148d0c64d3bbc0ae1fcb6a169a7e4553c5d0c8ca56a7ca036d161",
      "blockNumber": "0x17c151",
      "from": "0xE520D5A75fCbbdAeC7014a9de58846dCFFB6B18d",
      "to": "0xb31817E3B06C0D7E871d75D7929fAAe24624B5C9",
      "cumulativeGasUsed": "0x237dc",
      "gasUsed": "0x1807b",
      "contractAddress": null,
      "logs": [
        {
          "address": "0xC53E7008fE026Ab5871b06C42AD5E2086Ccb3dFd",
          "topics": [
            "0xddf252ad1be2c89b69c2b068fc378daa952ba7f163c4a11628f55a4df523b3ef",
            "0x000000000000000000000000e520d5a75fcbbdaec7014a9de58846dcffb6b18d",
            "0x000000000000000000000000b31817e3b06c0d7e871d75d7929faae24624b5c9"
          ],
          "data": "0x0000000000000000000000000000000000000000000000001bc16d674ec80000",
          "blockHash": "0xae2da9eb0f2148d0c64d3bbc0ae1fcb6a169a7e4553c5d0c8ca56a7ca036d161",
          "blockNumber": "0x17c151",
          "transactionHash": "0x514adc56f876049f6a7e098dc1b5980fecfbd64b410ed8f0c82bec9af89ce17b",
          "transactionIndex": "0x1",
          "logIndex": "0x0",
          "removed": false
        },
        {
          "address": "0xb31817E3B06C0D7E871d75D7929fAAe24624B5C9",
          "topics": [
            "0xbca387acb0ba7d06e329c4372885bb664f19a98153ccf3e74e56c136bf0e88c4",
            "0x00000000000000000000000066adde90cb4f892c517c3ef579fffdbb2a726eed",
            "0x0000000000000000000000000000000000000000000000000000000000000001"
          ],
          "data": "0x0000000000000000000000000000000000000000000000000000000000000001",
          "blockHash": "0xae2da9eb0f2148d0c64d3bbc0ae1fcb6a169a7e4553c5d0c8ca56a7ca036d161",
          "blockNumber": "0x17c151",
          "transactionHash": "0x514adc56f876049f6a7e098dc1b5980fecfbd64b410ed8f0c82bec9af89ce17b",
          "transactionIndex": "0x1",
          "logIndex": "0x1",
          "removed": false
        }
      ],
      "status": "0x1",
      "logsBloom": "0x00000000000000000000000400000000000000000004000000000000000000000000000000000000000000000000000000000000000000000000000010840000080000000000000000000008000000000000000000040040000000000000000000000000000000000000000080000000000200000000000000000010000000010200000000000000000000000000020000000000000000000000000000000000000000000000000100000000000000000000000000000000000000000000000000000002000000010000000001200000000000000000000000000000000040000000000000000000000000200000000000000000000000000000000100000000",
      "type": "0x2",
      "effectiveGasPrice": "0xb2d05fdf"
    },
    {
      "transactionHash": "0x6b0d80888d390ff1223066a453f21fdff70d5d1be92aa83faae252d67c0b2f18",
      "transactionIndex": "0x2",
      "blockHash": "0x8adf2dbd92dfaf5d97cc7743dd7f2f08aa12c086d5d9de4b5255b100ae22f05f",
      "blockNumber": "0x17c156",
      "from": "0xE520D5A75fCbbdAeC7014a9de58846dCFFB6B18d",
      "to": "0xC53E7008fE026Ab5871b06C42AD5E2086Ccb3dFd",
      "cumulativeGasUsed": "0x343c2",
      "gasUsed": "0xb53a",
      "contractAddress": null,
      "logs": [
        {
          "address": "0xC53E7008fE026Ab5871b06C42AD5E2086Ccb3dFd",
          "topics": [
            "0x8c5be1e5ebec7d5bd14f71427d1e84f3dd0314c0f7b2291e5b200ac8c7c3b925",
            "0x000000000000000000000000e520d5a75fcbbdaec7014a9de58846dcffb6b18d",
            "0x000000000000000000000000b31817e3b06c0d7e871d75d7929faae24624b5c9"
          ],
          "data": "0x0000000000000000000000000000000000000000000000001bc16d674ec80000",
          "blockHash": "0x8adf2dbd92dfaf5d97cc7743dd7f2f08aa12c086d5d9de4b5255b100ae22f05f",
          "blockNumber": "0x17c156",
          "transactionHash": "0x6b0d80888d390ff1223066a453f21fdff70d5d1be92aa83faae252d67c0b2f18",
          "transactionIndex": "0x2",
          "logIndex": "0x1",
          "removed": false
        }
      ],
      "status": "0x1",
      "logsBloom": "0x00000000000000000000000000000000000000000004000000000000000000000000000000000000000000000000000000000000000000000000000000a00000000000000000000000000008000000000000000000000040000000000000000000000000000000000000000000000000000000000000000000000000000000010000000000000000000000000000020000000000000000000000000000000000020000000000000100000000000000000000000000000000000000000000000000000000000000010000000000000000000000000000000000000000000000000010000000000000000000000000000000000000000000000000000100000000",
      "type": "0x2",
      "effectiveGasPrice": "0xb2d05fdf"
    },
    {
      "transactionHash": "0x2f7cf00c268ce16cc598bb54063a50e8f31d485929b703756d5bec3d33e1b38a",
      "transactionIndex": "0x1",
      "blockHash": "0x705be7859001c062c36046eafae767c1fc5bef57091441a1550a6fd7abce5715",
      "blockNumber": "0x17c15a",
      "from": "0xE520D5A75fCbbdAeC7014a9de58846dCFFB6B18d",
      "to": "0xb31817E3B06C0D7E871d75D7929fAAe24624B5C9",
      "cumulativeGasUsed": "0x27a9c",
      "gasUsed": "0x1807b",
      "contractAddress": null,
      "logs": [
        {
          "address": "0xC53E7008fE026Ab5871b06C42AD5E2086Ccb3dFd",
          "topics": [
            "0xddf252ad1be2c89b69c2b068fc378daa952ba7f163c4a11628f55a4df523b3ef",
            "0x000000000000000000000000e520d5a75fcbbdaec7014a9de58846dcffb6b18d",
            "0x000000000000000000000000b31817e3b06c0d7e871d75d7929faae24624b5c9"
          ],
          "data": "0x0000000000000000000000000000000000000000000000001bc16d674ec80000",
          "blockHash": "0x705be7859001c062c36046eafae767c1fc5bef57091441a1550a6fd7abce5715",
          "blockNumber": "0x17c15a",
          "transactionHash": "0x2f7cf00c268ce16cc598bb54063a50e8f31d485929b703756d5bec3d33e1b38a",
          "transactionIndex": "0x1",
          "logIndex": "0x0",
          "removed": false
        },
        {
          "address": "0xb31817E3B06C0D7E871d75D7929fAAe24624B5C9",
          "topics": [
            "0xbca387acb0ba7d06e329c4372885bb664f19a98153ccf3e74e56c136bf0e88c4",
            "0x00000000000000000000000034f196ff027591c061f26e5138129a69f10bbe6d",
            "0x0000000000000000000000000000000000000000000000000000000000000001"
          ],
          "data": "0x0000000000000000000000000000000000000000000000000000000000000002",
          "blockHash": "0x705be7859001c062c36046eafae767c1fc5bef57091441a1550a6fd7abce5715",
          "blockNumber": "0x17c15a",
          "transactionHash": "0x2f7cf00c268ce16cc598bb54063a50e8f31d485929b703756d5bec3d33e1b38a",
          "transactionIndex": "0x1",
          "logIndex": "0x1",
          "removed": false
        }
      ],
      "status": "0x1",
      "logsBloom": "0x00000000000000200000000000000000000000000004000000000000000000000000000000000000000000000000000000000000000000000000000000840000080000000000000000000008000000000000000000040040000000000000000000000000000000000000000080000000100200000000000000000010000000010200000000000000000000000000020000000000000000000000000000000000000000000000000100000000000000000000000000000000000000000000000000000002000200010000000001200000000000000000000000000000000040000000000000000000000000000000000000000000000000000000000100000000",
      "type": "0x2",
      "effectiveGasPrice": "0xb2d05fdc"
    },
    {
      "transactionHash": "0x3eef9bedb3f606b55e46dd2b8914fbe92ba8ae2b190ec693a705933bf877d549",
      "transactionIndex": "0x2",
      "blockHash": "0xecaece600c0dbafe0bfb2448d85128449bdf33e7dbc20770782ccdaa0fa08c07",
      "blockNumber": "0x17c15e",
      "from": "0xE520D5A75fCbbdAeC7014a9de58846dCFFB6B18d",
      "to": "0xC53E7008fE026Ab5871b06C42AD5E2086Ccb3dFd",
      "cumulativeGasUsed": "0x22b53",
      "gasUsed": "0xb53a",
      "contractAddress": null,
      "logs": [
        {
          "address": "0xC53E7008fE026Ab5871b06C42AD5E2086Ccb3dFd",
          "topics": [
            "0x8c5be1e5ebec7d5bd14f71427d1e84f3dd0314c0f7b2291e5b200ac8c7c3b925",
            "0x000000000000000000000000e520d5a75fcbbdaec7014a9de58846dcffb6b18d",
            "0x000000000000000000000000b31817e3b06c0d7e871d75d7929faae24624b5c9"
          ],
          "data": "0x0000000000000000000000000000000000000000000000001bc16d674ec80000",
          "blockHash": "0xecaece600c0dbafe0bfb2448d85128449bdf33e7dbc20770782ccdaa0fa08c07",
          "blockNumber": "0x17c15e",
          "transactionHash": "0x3eef9bedb3f606b55e46dd2b8914fbe92ba8ae2b190ec693a705933bf877d549",
          "transactionIndex": "0x2",
          "logIndex": "0x1",
          "removed": false
        }
      ],
      "status": "0x1",
      "logsBloom": "0x00000000000000000000000000000000000000000004000000000000000000000000000000000000000000000000000000000000000000000000000000a00000000000000000000000000008000000000000000000000040000000000000000000000000000000000000000000000000000000000000000000000000000000010000000000000000000000000000020000000000000000000000000000000000020000000000000100000000000000000000000000000000000000000000000000000000000000010000000000000000000000000000000000000000000000000010000000000000000000000000000000000000000000000000000100000000",
      "type": "0x2",
      "effectiveGasPrice": "0xb2d05fd9"
    }
  ],
  "libraries": [],
  "pending": [],
  "returns": {},
  "timestamp": 1707800355,
  "chain": 168587773,
  "multi": false,
  "commit": "f941149"
}