{
  "transactions": [
    {
      "hash": "0xe46bff493aa8fb16e5f10082d5570cf7ed687e983a5bb53a43dfc4a21a6a2fc3",
      "transactionType": "CALL",
      "contractName": null,
      "contractAddress": "0xC53E7008fE026Ab5871b06C42AD5E2086Ccb3dFd",
      "function": "mint(address,uint256)",
      "arguments": [
        "0x03a37e88aD865469C196f484AE32CDa71eB24Cf1",
        "200000000000000000000"
      ],
      "transaction": {
        "type": "0x02",
        "from": "0x6d1206d66faa79e9fbd249b48aa55509071514a1",
        "to": "0xc53e7008fe026ab5871b06c42ad5e2086ccb3dfd",
        "gas": "0x12100",
        "value": "0x0",
        "data": "0x40c10f1900000000000000000000000003a37e88ad865469c196f484ae32cda71eb24cf100000000000000000000000000000000000000000000000ad78ebc5ac6200000",
        "nonce": "0x23",
        "accessList": []
      },
      "additionalContracts": [],
      "isFixedGasLimit": false
    },
    {
      "hash": "0x147b1b3bb704c2989508a7978c99f261596210e0f8e3ee2572ac888c201123e1",
      "transactionType": "CALL",
      "contractName": null,
      "contractAddress": "0xC53E7008fE026Ab5871b06C42AD5E2086Ccb3dFd",
      "function": "approve(address,uint256)",
      "arguments": [
        "0xb31817E3B06C0D7E871d75D7929fAAe24624B5C9",
        "2000000000000000000"
      ],
      "transaction": {
        "type": "0x02",
        "from": "0x03a37e88ad865469c196f484ae32cda71eb24cf1",
        "to": "0xc53e7008fe026ab5871b06c42ad5e2086ccb3dfd",
        "gas": "0x1090a",
        "value": "0x0",
        "data": "0x095ea7b3000000000000000000000000b31817e3b06c0d7e871d75d7929faae24624b5c90000000000000000000000000000000000000000000000001bc16d674ec80000",
        "nonce": "0x0",
        "accessList": []
      },
      "additionalContracts": [],
      "isFixedGasLimit": false
    },
    {
      "hash": "0x42ebe90561c3ed5028deb8fdd5e76d9a020c355dcab3c45109e80cba419ae740",
      "transactionType": "CALL",
      "contractName": null,
      "contractAddress": "0xb31817E3B06C0D7E871d75D7929fAAe24624B5C9",
      "function": "join(address)",
      "arguments": [
        "0x03a37e88aD865469C196f484AE32CDa71eB24Cf1"
      ],
      "transaction": {
        "type": "0x02",
        "from": "0x03a37e88ad865469c196f484ae32cda71eb24cf1",
        "to": "0xb31817e3b06c0d7e871d75d7929faae24624b5c9",
        "gas": "0x2324d",
        "value": "0x0",
        "data": "0x28ffe6c800000000000000000000000003a37e88ad865469c196f484ae32cda71eb24cf1",
        "nonce": "0x1",
        "accessList": []
      },
      "additionalContracts": [],
      "isFixedGasLimit": false
    },
    {
      "hash": "0xe1d519908f9d2f80d604cb19de6075662689a828482ee42914b7066064c75362",
      "transactionType": "CALL",
      "contractName": null,
      "contractAddress": "0xC53E7008fE026Ab5871b06C42AD5E2086Ccb3dFd",
      "function": "mint(address,uint256)",
      "arguments": [
        "0x710844221954055d99efa7a3B6a9f8409264b256",
        "200000000000000000000"
      ],
      "transaction": {
        "type": "0x02",
        "from": "0x6d1206d66faa79e9fbd249b48aa55509071514a1",
        "to": "0xc53e7008fe026ab5871b06c42ad5e2086ccb3dfd",
        "gas": "0x12100",
        "value": "0x0",
        "data": "0x40c10f19000000000000000000000000710844221954055d99efa7a3b6a9f8409264b25600000000000000000000000000000000000000000000000ad78ebc5ac6200000",
        "nonce": "0x24",
        "accessList": []
      },
      "additionalContracts": [],
      "isFixedGasLimit": false
    },
    {
      "hash": "0x72748668f93e49f0aa59d2c4c32f36ddddbf67e18fc0967b2f61bc977cd23a9f",
      "transactionType": "CALL",
      "contractName": null,
      "contractAddress": "0xC53E7008fE026Ab5871b06C42AD5E2086Ccb3dFd",
      "function": "approve(address,uint256)",
      "arguments": [
        "0xb31817E3B06C0D7E871d75D7929fAAe24624B5C9",
        "2000000000000000000"
      ],
      "transaction": {
        "type": "0x02",
        "from": "0x710844221954055d99efa7a3b6a9f8409264b256",
        "to": "0xc53e7008fe026ab5871b06c42ad5e2086ccb3dfd",
        "gas": "0x1090a",
        "value": "0x0",
        "data": "0x095ea7b3000000000000000000000000b31817e3b06c0d7e871d75d7929faae24624b5c90000000000000000000000000000000000000000000000001bc16d674ec80000",
        "nonce": "0x0",
        "accessList": []
      },
      "additionalContracts": [],
      "isFixedGasLimit": false
    },
    {
      "hash": "0x765ad49d8a32f6ba351d1a49f678a97d90c04c2a815ad43818ecb4e9c25778dc",
      "transactionType": "CALL",
      "contractName": null,
      "contractAddress": "0xb31817E3B06C0D7E871d75D7929fAAe24624B5C9",
      "function": "join(address)",
      "arguments": [
        "0x710844221954055d99efa7a3B6a9f8409264b256"
      ],
      "transaction": {
        "type": "0x02",
        "from": "0x710844221954055d99efa7a3b6a9f8409264b256",
        "to": "0xb31817e3b06c0d7e871d75d7929faae24624b5c9",
        "gas": "0x2324d",
        "value": "0x0",
        "data": "0x28ffe6c8000000000000000000000000710844221954055d99efa7a3b6a9f8409264b256",
        "nonce": "0x1",
        "accessList": []
      },
      "additionalContracts": [],
      "isFixedGasLimit": false
    },
    {
      "hash": "0x18ecd84298eda3da5bdbd8c2042536f68f492cf78dc3c1d4e82d5e89466a8ea7",
      "transactionType": "CALL",
      "contractName": null,
      "contractAddress": "0x7acbc214042016F6fbdE1c3bC37a4D6b4808B19e",
      "function": "setRandomNumber(uint256,uint256)",
      "arguments": [
        "1",
        "2"
      ],
      "transaction": {
        "type": "0x02",
        "from": "0x6d1206d66faa79e9fbd249b48aa55509071514a1",
        "to": "0x7acbc214042016f6fbde1c3bc37a4d6b4808b19e",
        "gas": "0xf7c9",
        "value": "0x0",
        "data": "0x5da4fabc00000000000000000000000000000000000000000000000000000000000000010000000000000000000000000000000000000000000000000000000000000002",
        "nonce": "0x25",
        "accessList": []
      },
      "additionalContracts": [],
      "isFixedGasLimit": false
    },
    {
      "hash": "0x74618854464841a399269a3d9af571833bde82b9884a18a9e383755aacb4766b",
      "transactionType": "CALL",
      "contractName": null,
      "contractAddress": "0xb31817E3B06C0D7E871d75D7929fAAe24624B5C9",
      "function": "selectWinner(uint256)",
      "arguments": [
        "0"
      ],
      "transaction": {
        "type": "0x02",
        "from": "0x6d1206d66faa79e9fbd249b48aa55509071514a1",
        "to": "0xb31817e3b06c0d7e871d75d7929faae24624b5c9",
        "gas": "0x381cc",
        "value": "0x0",
        "data": "0x4c524be40000000000000000000000000000000000000000000000000000000000000000",
        "nonce": "0x26",
        "accessList": []
      },
      "additionalContracts": [],
      "isFixedGasLimit": false
    }
  ],
  "receipts": [
    {
      "transactionHash": "0xe46bff493aa8fb16e5f10082d5570cf7ed687e983a5bb53a43dfc4a21a6a2fc3",
      "transactionIndex": "0x1",
      "blockHash": "0x393971a439c89b84276c8e1e8865404f0f3dd5dba4c65acd6ca6247ab53f3076",
      "blockNumber": "0x17c29a",
      "from": "0x6d1206D66faA79e9FBd249B48Aa55509071514a1",
      "to": "0xC53E7008fE026Ab5871b06C42AD5E2086Ccb3dFd",
      "cumulativeGasUsed": "0x1cb69",
      "gasUsed": "0xd13c",
      "contractAddress": null,
      "logs": [
        {
          "address": "0xC53E7008fE026Ab5871b06C42AD5E2086Ccb3dFd",
          "topics": [
            "0xddf252ad1be2c89b69c2b068fc378daa952ba7f163c4a11628f55a4df523b3ef",
            "0x0000000000000000000000000000000000000000000000000000000000000000",
            "0x00000000000000000000000003a37e88ad865469c196f484ae32cda71eb24cf1"
          ],
          "data": "0x00000000000000000000000000000000000000000000000ad78ebc5ac6200000",
          "blockHash": "0x393971a439c89b84276c8e1e8865404f0f3dd5dba4c65acd6ca6247ab53f3076",
          "blockNumber": "0x17c29a",
          "transactionHash": "0xe46bff493aa8fb16e5f10082d5570cf7ed687e983a5bb53a43dfc4a21a6a2fc3",
          "transactionIndex": "0x1",
          "logIndex": "0x0",
          "removed": false
        }
      ],
      "status": "0x1",
      "logsBloom": "0x00000000000000000000000000000000000000000000000000000000000000000000000000000020000000000000000000000000000000000000000000800000000000000000000000000008000000000000000000000000000000000000000000000000020000000000000000000800000000000000000000000010000000000000000000000000000000000000020000000000000000000000000000000000000000000000000000000000000000000000000000000000000000000000000000000002000000010000000000000000000000000000000000000000000020000000000000000000000000000000080000000000000000000000000100000000",
      "type": "0x2",
      "effectiveGasPrice": "0xb2d05fbe"
    },
    {
      "transactionHash": "0x147b1b3bb704c2989508a7978c99f261596210e0f8e3ee2572ac888c201123e1",
      "transactionIndex": "0x1",
      "blockHash": "0xd58eb149a179cdba5475cdb29072dd1e0ca865acc45216dd9812e2881a46dcd4",
      "blockNumber": "0x17c29f",
      "from": "0x03a37e88aD865469C196f484AE32CDa71eB24Cf1",
      "to": "0xC53E7008fE026Ab5871b06C42AD5E2086Ccb3dFd",
      "cumulativeGasUsed": "0x17a9f",
      "gasUsed": "0xb53a",
      "contractAddress": null,
      "logs": [
        {
          "address": "0xC53E7008fE026Ab5871b06C42AD5E2086Ccb3dFd",
          "topics": [
            "0x8c5be1e5ebec7d5bd14f71427d1e84f3dd0314c0f7b2291e5b200ac8c7c3b925",
            "0x00000000000000000000000003a37e88ad865469c196f484ae32cda71eb24cf1",
            "0x000000000000000000000000b31817e3b06c0d7e871d75d7929faae24624b5c9"
          ],
          "data": "0x0000000000000000000000000000000000000000000000001bc16d674ec80000",
          "blockHash": "0xd58eb149a179cdba5475cdb29072dd1e0ca865acc45216dd9812e2881a46dcd4",
          "blockNumber": "0x17c29f",
          "transactionHash": "0x147b1b3bb704c2989508a7978c99f261596210e0f8e3ee2572ac888c201123e1",
          "transactionIndex": "0x1",
          "logIndex": "0x0",
          "removed": false
        }
      ],
      "status": "0x1",
      "logsBloom": "0x00000000000000000000000000000000000000000000000000000000000000000000000000000020000000000000000000000000000000000000000000a00000000000000000000000000008000000000000000000000040000000000000000000000000000000000000000000000000000000000000000000000000000000000000000000000000000000000000020000000000000000000000000000000000020000000000000000000000000000000000000000000000000000000000000000000000000000010000000000000000000000000000000000000000000000000010000000000000000000000000080000000000000000000000000100000000",
      "type": "0x2",
      "effectiveGasPrice": "0xb2d05fc3"
    },
    {
      "transactionHash": "0x42ebe90561c3ed5028deb8fdd5e76d9a020c355dcab3c45109e80cba419ae740",
      "transactionIndex": "0x2",
      "blockHash": "0x90ba724e6c87d8697740562880a2e3db92ddc7b206d88e5506ac053a0739b58b",
      "blockNumber": "0x17c2a3",
      "from": "0x03a37e88aD865469C196f484AE32CDa71eB24Cf1",
      "to": "0xb31817E3B06C0D7E871d75D7929fAAe24624B5C9",
      "cumulativeGasUsed": "0x2ecb0",
      "gasUsed": "0x1807b",
      "contractAddress": null,
      "logs": [
        {
          "address": "0xC53E7008fE026Ab5871b06C42AD5E2086Ccb3dFd",
          "topics": [
            "0xddf252ad1be2c89b69c2b068fc378daa952ba7f163c4a11628f55a4df523b3ef",
            "0x00000000000000000000000003a37e88ad865469c196f484ae32cda71eb24cf1",
            "0x000000000000000000000000b31817e3b06c0d7e871d75d7929faae24624b5c9"
          ],
          "data": "0x0000000000000000000000000000000000000000000000001bc16d674ec80000",
          "blockHash": "0x90ba724e6c87d8697740562880a2e3db92ddc7b206d88e5506ac053a0739b58b",
          "blockNumber": "0x17c2a3",
          "transactionHash": "0x42ebe90561c3ed5028deb8fdd5e76d9a020c355dcab3c45109e80cba419ae740",
          "transactionIndex": "0x2",
          "logIndex": "0x1",
          "removed": false
        },
        {
          "address": "0xb31817E3B06C0D7E871d75D7929fAAe24624B5C9",
          "topics": [
            "0xbca387acb0ba7d06e329c4372885bb664f19a98153ccf3e74e56c136bf0e88c4",
            "0x00000000000000000000000003a37e88ad865469c196f484ae32cda71eb24cf1",
            "0x0000000000000000000000000000000000000000000000000000000000000001"
          ],
          "data": "0x0000000000000000000000000000000000000000000000000000000000000003",
          "blockHash": "0x90ba724e6c87d8697740562880a2e3db92ddc7b206d88e5506ac053a0739b58b",
          "blockNumber": "0x17c2a3",
          "transactionHash": "0x42ebe90561c3ed5028deb8fdd5e76d9a020c355dcab3c45109e80cba419ae740",
          "transactionIndex": "0x2",
          "logIndex": "0x2",
          "removed": false
        }
      ],
      "status": "0x1",
      "logsBloom": "0x00000000000000000000000000000000000000000000000000000000000000000000000000000020000000000000000000000000000000000000000000840000080000000000000000000008000000000000000000040040000000000000000000000000000000000000000080000000000200000000000000000010000000000200000000000000000000000000020000000000000000000000000000000000000000000000000000000000000000000000000000000000000000000000000000000002000000010000000001200000000000000000000000000000000040000000000000000000000000000000080000000000000000000000000100000000",
      "type": "0x2",
      "effectiveGasPrice": "0xb2d05fc0"
    },
    {
      "transactionHash": "0xe1d519908f9d2f80d604cb19de6075662689a828482ee42914b7066064c75362",
      "transactionIndex": "0x2",
      "blockHash": "0x6cebf63292e860a47fbd7498863d893c3f3f180398b90a03564a0469ebfe5e98",
      "blockNumber": "0x17c2a7",
      "from": "0x6d1206D66faA79e9FBd249B48Aa55509071514a1",
      "to": "0xC53E7008fE026Ab5871b06C42AD5E2086Ccb3dFd",
      "cumulativeGasUsed": "0x1faa5",
      "gasUsed": "0xd13c",
      "contractAddress": null,
      "logs": [
        {
          "address": "0xC53E7008fE026Ab5871b06C42AD5E2086Ccb3dFd",
          "topics": [
            "0xddf252ad1be2c89b69c2b068fc378daa952ba7f163c4a11628f55a4df523b3ef",
            "0x0000000000000000000000000000000000000000000000000000000000000000",
            "0x000000000000000000000000710844221954055d99efa7a3b6a9f8409264b256"
          ],
          "data": "0x00000000000000000000000000000000000000000000000ad78ebc5ac6200000",
          "blockHash": "0x6cebf63292e860a47fbd7498863d893c3f3f180398b90a03564a0469ebfe5e98",
          "blockNumber": "0x17c2a7",
          "transactionHash": "0xe1d519908f9d2f80d604cb19de6075662689a828482ee42914b7066064c75362",
          "transactionIndex": "0x2",
          "logIndex": "0x1",
          "removed": false
        }
      ],
      "status": "0x1",
      "logsBloom": "0x00000000000000000000000000000000000000000000000000000000010000000000000000000000000000000000000000000000000000000000000000800000000000000000000000000008000000000000000000000000000000000000000000000000020000000000000000000800000000000000000000000010000000000000000000000000000100000000020000000000000000000000000000000000000000000000000000000000000000000000000000000000000000000000040000000002000000000000000000000000000000000000000000000000000020000000000000000000000000000000000000000000000000000000000100000000",
      "type": "0x2",
      "effectiveGasPrice": "0xb2d05fbd"
    },
    {
      "transactionHash": "0x72748668f93e49f0aa59d2c4c32f36ddddbf67e18fc0967b2f61bc977cd23a9f",
      "transactionIndex": "0x1",
      "blockHash": "0xfd4660518d03aee04c8afca9bc680da3429cdd218ffe11ccf97ec6420190ec9f",
      "blockNumber": "0x17c2ac",
      "from": "0x710844221954055d99efa7a3B6a9f8409264b256",
      "to": "0xC53E7008fE026Ab5871b06C42AD5E2086Ccb3dFd",
      "cumulativeGasUsed": "0x1af67",
      "gasUsed": "0xb53a",
      "contractAddress": null,
      "logs": [
        {
          "address": "0xC53E7008fE026Ab5871b06C42AD5E2086Ccb3dFd",
          "topics": [
            "0x8c5be1e5ebec7d5bd14f71427d1e84f3dd0314c0f7b2291e5b200ac8c7c3b925",
            "0x000000000000000000000000710844221954055d99efa7a3b6a9f8409264b256",
            "0x000000000000000000000000b31817e3b06c0d7e871d75d7929faae24624b5c9"
          ],
          "data": "0x0000000000000000000000000000000000000000000000001bc16d674ec80000",
          "blockHash": "0xfd4660518d03aee04c8afca9bc680da3429cdd218ffe11ccf97ec6420190ec9f",
          "blockNumber": "0x17c2ac",
          "transactionHash": "0x72748668f93e49f0aa59d2c4c32f36ddddbf67e18fc0967b2f61bc977cd23a9f",
          "transactionIndex": "0x1",
          "logIndex": "0x0",
          "removed": false
        }
      ],
      "status": "0x1",
      "logsBloom": "0x00000000000000000000000000000000000000000000000000000000010000000000000000000000000000000000000000000000000000000000000000a00000000000000000000000000008000000000000000000000040000000000000000000000000000000000000000000000000000000000000000000000000000000000000000000000000000100000000020000000000000000000000000000000000020000000000000000000000000000000000000000000000000000000000040000000000000000010000000000000000000000000000000000000000000000000010000000000000000000000000000000000000000000000000000100000000",
      "type": "0x2",
      "effectiveGasPrice": "0xb2d05fbc"
    },
    {
      "transactionHash": "0x765ad49d8a32f6ba351d1a49f678a97d90c04c2a815ad43818ecb4e9c25778dc",
      "transactionIndex": "0x2",
      "blockHash": "0x87b349d03eaaa92a34f3e151186ae6f0c0f82025d6e9b4188c8d84f23914afe2",
      "blockNumber": "0x17c2b0",
      "from": "0x710844221954055d99efa7a3B6a9f8409264b256",
      "to": "0xb31817E3B06C0D7E871d75D7929fAAe24624B5C9",
      "cumulativeGasUsed": "0x289e4",
      "gasUsed": "0x1807b",
      "contractAddress": null,
      "logs": [
        {
          "address": "0xC53E7008fE026Ab5871b06C42AD5E2086Ccb3dFd",
          "topics": [
            "0xddf252ad1be2c89b69c2b068fc378daa952ba7f163c4a11628f55a4df523b3ef",
            "0x000000000000000000000000710844221954055d99efa7a3b6a9f8409264b256",
            "0x000000000000000000000000b31817e3b06c0d7e871d75d7929faae24624b5c9"
          ],
          "data": "0x0000000000000000000000000000000000000000000000001bc16d674ec80000",
          "blockHash": "0x87b349d03eaaa92a34f3e151186ae6f0c0f82025d6e9b4188c8d84f23914afe2",
          "blockNumber": "0x17c2b0",
          "transactionHash": "0x765ad49d8a32f6ba351d1a49f678a97d90c04c2a815ad43818ecb4e9c25778dc",
          "transactionIndex": "0x2",
          "logIndex": "0x0",
          "removed": false
        },
        {
          "address": "0xb31817E3B06C0D7E871d75D7929fAAe24624B5C9",
          "topics": [
            "0xbca387acb0ba7d06e329c4372885bb664f19a98153ccf3e74e56c136bf0e88c4",
            "0x000000000000000000000000710844221954055d99efa7a3b6a9f8409264b256",
            "0x0000000000000000000000000000000000000000000000000000000000000001"
          ],
          "data": "0x0000000000000000000000000000000000000000000000000000000000000004",
          "blockHash": "0x87b349d03eaaa92a34f3e151186ae6f0c0f82025d6e9b4188c8d84f23914afe2",
          "blockNumber": "0x17c2b0",
          "transactionHash": "0x765ad49d8a32f6ba351d1a49f678a97d90c04c2a815ad43818ecb4e9c25778dc",
          "transactionIndex": "0x2",
          "logIndex": "0x1",
          "removed": false
        }
      ],
      "status": "0x1",
      "logsBloom": "0x00000000000000000000000000000000000000000000000000000000010000000000000000000000000000000000000000000000000000000000000000840000080000000000000000000008000000000000000000040040000000000000000000000000000000000000000080000000000200000000000000000010000000000200000000000000000100000000020000000000000000000000000000000000000000000000000000000000000000000000000000000000000000000000040000000002000000010000000001200000000000000000000000000000000040000000000000000000000000000000000000000000000000000000000100000000",
      "type": "0x2",
      "effectiveGasPrice": "0xb2d05fbe"
    },
    {
      "transactionHash": "0x18ecd84298eda3da5bdbd8c2042536f68f492cf78dc3c1d4e82d5e89466a8ea7",
      "transactionIndex": "0x1",
      "blockHash": "0x1c782c2e69de9d4a94166acdbbacb7a3052f3e46bcee00288849b859caaab64b",
      "blockNumber": "0x17c2b5",
      "from": "0x6d1206D66faA79e9FBd249B48Aa55509071514a1",
      "to": "0x7acbc214042016F6fbdE1c3bC37a4D6b4808B19e",
      "cumulativeGasUsed": "0x16ac6",
      "gasUsed": "0xb365",
      "contractAddress": null,
      "logs": [],
      "status": "0x1",
      "logsBloom": "0x00000000000000000000000000000000000000000000000000000000000000000000000000000000000000000000000000000000000000000000000000000000000000000000000000000000000000000000000000000000000000000000000000000000000000000000000000000000000000000000000000000000000000000000000000000000000000000000000000000000000000000000000000000000000000000000000000000000000000000000000000000000000000000000000000000000000000000000000000000000000000000000000000000000000000000000000000000000000000000000000000000000000000000000000000000000",
      "type": "0x2",
      "effectiveGasPrice": "0xb2d05fbe"
    },
    {
      "transactionHash": "0x74618854464841a399269a3d9af571833bde82b9884a18a9e383755aacb4766b",
      "transactionIndex": "0x2",
      "blockHash": "0xa5fad5288f8611aef7180a183930eda69a9f1f9fbc1a8a9149e1db490528a8d8",
      "blockNumber": "0x17c2b9",
      "from": "0x6d1206D66faA79e9FBd249B48Aa55509071514a1",
      "to": "0xb31817E3B06C0D7E871d75D7929fAAe24624B5C9",
      "cumulativeGasUsed": "0xb1419",
      "gasUsed": "0x265e1",
      "contractAddress": null,
      "logs": [
        {
          "address": "0xC53E7008fE026Ab5871b06C42AD5E2086Ccb3dFd",
          "topics": [
            "0xddf252ad1be2c89b69c2b068fc378daa952ba7f163c4a11628f55a4df523b3ef",
            "0x000000000000000000000000b31817e3b06c0d7e871d75d7929faae24624b5c9",
            "0x000000000000000000000000000000000000000000000000000000000000dead"
          ],
          "data": "0x0000000000000000000000000000000000000000000000001bc16d674ec80000",
          "blockHash": "0xa5fad5288f8611aef7180a183930eda69a9f1f9fbc1a8a9149e1db490528a8d8",
          "blockNumber": "0x17c2b9",
          "transactionHash": "0x74618854464841a399269a3d9af571833bde82b9884a18a9e383755aacb4766b",
          "transactionIndex": "0x2",
          "logIndex": "0x7",
          "removed": false
        },
        {
          "address": "0xC53E7008fE026Ab5871b06C42AD5E2086Ccb3dFd",
          "topics": [
            "0x8c5be1e5ebec7d5bd14f71427d1e84f3dd0314c0f7b2291e5b200ac8c7c3b925",
            "0x000000000000000000000000b31817e3b06c0d7e871d75d7929faae24624b5c9",
            "0x0000000000000000000000009be14296c60cdb491e341db4192d165690d5226f"
          ],
          "data": "0x0000000000000000000000000000000000000000000000006f05b59d3b200000",
          "blockHash": "0xa5fad5288f8611aef7180a183930eda69a9f1f9fbc1a8a9149e1db490528a8d8",
          "blockNumber": "0x17c2b9",
          "transactionHash": "0x74618854464841a399269a3d9af571833bde82b9884a18a9e383755aacb4766b",
          "transactionIndex": "0x2",
          "logIndex": "0x8",
          "removed": false
        },
        {
          "address": "0xC53E7008fE026Ab5871b06C42AD5E2086Ccb3dFd",
          "topics": [
            "0xddf252ad1be2c89b69c2b068fc378daa952ba7f163c4a11628f55a4df523b3ef",
            "0x000000000000000000000000b31817e3b06c0d7e871d75d7929faae24624b5c9",
            "0x0000000000000000000000009be14296c60cdb491e341db4192d165690d5226f"
          ],
          "data": "0x0000000000000000000000000000000000000000000000006f05b59d3b200000",
          "blockHash": "0xa5fad5288f8611aef7180a183930eda69a9f1f9fbc1a8a9149e1db490528a8d8",
          "blockNumber": "0x17c2b9",
          "transactionHash": "0x74618854464841a399269a3d9af571833bde82b9884a18a9e383755aacb4766b",
          "transactionIndex": "0x2",
          "logIndex": "0x9",
          "removed": false
        },
        {
          "address": "0x24f6A729B094854F334162309485A0082B05DC4a",
          "topics": [
            "0xddf252ad1be2c89b69c2b068fc378daa952ba7f163c4a11628f55a4df523b3ef",
            "0x0000000000000000000000009be14296c60cdb491e341db4192d165690d5226f",
            "0x000000000000000000000000b31817e3b06c0d7e871d75d7929faae24624b5c9"
          ],
          "data": "0x00000000000000000000000000000000000000000000000000000000000c3500",
          "blockHash": "0xa5fad5288f8611aef7180a183930eda69a9f1f9fbc1a8a9149e1db490528a8d8",
          "blockNumber": "0x17c2b9",
          "transactionHash": "0x74618854464841a399269a3d9af571833bde82b9884a18a9e383755aacb4766b",
          "transactionIndex": "0x2",
          "logIndex": "0xa",
          "removed": false
        },
        {
          "address": "0xb31817E3B06C0D7E871d75D7929fAAe24624B5C9",
          "topics": [
            "0xca908db09e2c4b411e925f053dbe3ba2aad49023171939f512820b717f6b420b",
            "0x00000000000000000000000034f196ff027591c061f26e5138129a69f10bbe6d",
            "0x0000000000000000000000000000000000000000000000000000000000000001"
          ],
          "data": "0x0000000000000000000000000000000000000000000000008ac7230489e8000000000000000000000000000000000000000000000000000000000000000c3500",
          "blockHash": "0xa5fad5288f8611aef7180a183930eda69a9f1f9fbc1a8a9149e1db490528a8d8",
          "blockNumber": "0x17c2b9",
          "transactionHash": "0x74618854464841a399269a3d9af571833bde82b9884a18a9e383755aacb4766b",
          "transactionIndex": "0x2",
          "logIndex": "0xb",
          "removed": false
        }
      ],
      "status": "0x1",
      "logsBloom": "0x00000000000010200000000000000000000000000000000000000080000000000000000000000000001000000000000000200000000000000000000100a40000000000000000000000000008010000000000000000040040000000000000000200000000100000000000000080000000100200000000000000000010000000000000000000000000000004000000020000000000000000000200000000000000020000000000000000000000000000000000000000000000000000000000000000000402000200010000000000200000000000000000000000000000000040000010000000000000000000000000000000000000000000000000000100000000",
      "type": "0x2",
      "effectiveGasPrice": "0xb2d05fbf"
    }
  ],
  "libraries": [],
  "pending": [],
  "returns": {},
  "timestamp": 1707801046,
  "chain": 168587773,
  "multi": false,
  "commit": "f941149"
}