{
  "transactions": [
    {
      "hash": "0xf578561078ce34d300ce6eb13eecbd6ff54bf24385906514e8964b4b5f9b2986",
      "transactionType": "CALL",
      "contractName": null,
      "contractAddress": "0x24f6A729B094854F334162309485A0082B05DC4a",
      "function": "approve(address,uint256)",
      "arguments": [
        "0x129400290d9d20e2Ff951683DA847be7aeC57Be2",
        "100000000"
      ],
      "transaction": {
        "type": "0x02",
        "from": "0x6d1206d66faa79e9fbd249b48aa55509071514a1",
        "to": "0x24f6a729b094854f334162309485a0082b05dc4a",
        "gas": "0x108c4",
        "value": "0x0",
        "data": "0x095ea7b3000000000000000000000000129400290d9d20e2ff951683da847be7aec57be20000000000000000000000000000000000000000000000000000000005f5e100",
        "nonce": "0x20",
        "accessList": []
      },
      "additionalContracts": [],
      "isFixedGasLimit": false
    },
    {
      "hash": "0x888b7dae4a05f1e2d56944f679defab009f9d53efda0001719ad2117d2686edb",
      "transactionType": "CALL",
      "contractName": null,
      "contractAddress": "0x129400290d9d20e2Ff951683DA847be7aeC57Be2",
      "function": "distribute(address,uint256,uint256)",
      "arguments": [
        "0x24f6A729B094854F334162309485A0082B05DC4a",
        "100000000",
        "0"
      ],
      "transaction": {
        "type": "0x02",
        "from": "0x6d1206d66faa79e9fbd249b48aa55509071514a1",
        "to": "0x129400290d9d20e2ff951683da847be7aec57be2",
        "gas": "0x28955",
        "value": "0x0",
        "data": "0xe2c92a5200000000000000000000000024f6a729b094854f334162309485a0082b05dc4a0000000000000000000000000000000000000000000000000000000005f5e1000000000000000000000000000000000000000000000000000000000000000000",
        "nonce": "0x21",
        "accessList": []
      },
      "additionalContracts": [],
      "isFixedGasLimit": false
    }
  ],
  "receipts": [
    {
      "transactionHash": "0xf578561078ce34d300ce6eb13eecbd6ff54bf24385906514e8964b4b5f9b2986",
      "transactionIndex": "0x1",
      "blockHash": "0x2615e3d5bbea2020855f883c24aa73dd36c169873eb91f2f38a7f9483f629be6",
      "blockNumber": "0x17c0e9",
      "from": "0x6d1206D66faA79e9FBd249B48Aa55509071514a1",
      "to": "0x24f6A729B094854F334162309485A0082B05DC4a",
      "cumulativeGasUsed": "0x16c6b",
      "gasUsed": "0xb50a",
      "contractAddress": null,
      "logs": [
        {
          "address": "0x24f6A729B094854F334162309485A0082B05DC4a",
          "topics": [
            "0x8c5be1e5ebec7d5bd14f71427d1e84f3dd0314c0f7b2291e5b200ac8c7c3b925",
            "0x0000000000000000000000006d1206d66faa79e9fbd249b48aa55509071514a1",
            "0x000000000000000000000000129400290d9d20e2ff951683da847be7aec57be2"
          ],
          "data": "0x0000000000000000000000000000000000000000000000000000000005f5e100",
          "blockHash": "0x2615e3d5bbea2020855f883c24aa73dd36c169873eb91f2f38a7f9483f629be6",
          "blockNumber": "0x17c0e9",
          "transactionHash": "0xf578561078ce34d300ce6eb13eecbd6ff54bf24385906514e8964b4b5f9b2986",
          "transactionIndex": "0x1",
          "logIndex": "0x0",
          "removed": false
        }
      ],
      "status": "0x1",
      "logsBloom": "0x00000000000000000000000000000000000000000000000000000000000000008000000000000000000000000000000000000000000000000000000100202000000000000000000000000000010000020000000000000000000000000000000200000000000000000000000000000000000000000000000000000000000000000000000000000000000000000020000008000000000000000000000000000000020000000000000000000000000000000000000000000000000000000000000000004000000000000000000000000000000000000000000000000000000000000010000000000000000000000000000000000000000000000000000000000000",
      "type": "0x2",
      "effectiveGasPrice": "0xb2d05fdc"
    },
    {
      "transactionHash": "0x888b7dae4a05f1e2d56944f679defab009f9d53efda0001719ad2117d2686edb",
      "transactionIndex": "0x2",
      "blockHash": "0x2615e3d5bbea2020855f883c24aa73dd36c169873eb91f2f38a7f9483f629be6",
      "blockNumber": "0x17c0e9",
      "from": "0x6d1206D66faA79e9FBd249B48Aa55509071514a1",
      "to": "0x129400290d9d20e2Ff951683DA847be7aeC57Be2",
      "cumulativeGasUsed": "0x34287",
      "gasUsed": "0x1d61c",
      "contractAddress": null,
      "logs": [
        {
          "address": "0x24f6A729B094854F334162309485A0082B05DC4a",
          "topics": [
            "0xddf252ad1be2c89b69c2b068fc378daa952ba7f163c4a11628f55a4df523b3ef",
            "0x0000000000000000000000006d1206d66faa79e9fbd249b48aa55509071514a1",
            "0x000000000000000000000000129400290d9d20e2ff951683da847be7aec57be2"
          ],
          "data": "0x0000000000000000000000000000000000000000000000000000000005f5e100",
          "blockHash": "0x2615e3d5bbea2020855f883c24aa73dd36c169873eb91f2f38a7f9483f629be6",
          "blockNumber": "0x17c0e9",
          "transactionHash": "0x888b7dae4a05f1e2d56944f679defab009f9d53efda0001719ad2117d2686edb",
          "transactionIndex": "0x2",
          "logIndex": "0x1",
          "removed": false
        },
        {
          "address": "0x24f6A729B094854F334162309485A0082B05DC4a",
          "topics": [
            "0x8c5be1e5ebec7d5bd14f71427d1e84f3dd0314c0f7b2291e5b200ac8c7c3b925",
            "0x000000000000000000000000129400290d9d20e2ff951683da847be7aec57be2",
            "0x0000000000000000000000009be14296c60cdb491e341db4192d165690d5226f"
          ],
          "data": "0x0000000000000000000000000000000000000000000000000000000005f5e100",
          "blockHash": "0x2615e3d5bbea2020855f883c24aa73dd36c169873eb91f2f38a7f9483f629be6",
          "blockNumber": "0x17c0e9",
          "transactionHash": "0x888b7dae4a05f1e2d56944f679defab009f9d53efda0001719ad2117d2686edb",
          "transactionIndex": "0x2",
          "logIndex": "0x2",
          "removed": false
        },
        {
          "address": "0x24f6A729B094854F334162309485A0082B05DC4a",
          "topics": [
            "0xddf252ad1be2c89b69c2b068fc378daa952ba7f163c4a11628f55a4df523b3ef",
            "0x000000000000000000000000129400290d9d20e2ff951683da847be7aec57be2",
            "0x0000000000000000000000009be14296c60cdb491e341db4192d165690d5226f"
          ],
          "data": "0x0000000000000000000000000000000000000000000000000000000005f5e100",
          "blockHash": "0x2615e3d5bbea2020855f883c24aa73dd36c169873eb91f2f38a7f9483f629be6",
          "blockNumber": "0x17c0e9",
          "transactionHash": "0x888b7dae4a05f1e2d56944f679defab009f9d53efda0001719ad2117d2686edb",
          "transactionIndex": "0x2",
          "logIndex": "0x3",
          "removed": false
        },
        {
          "address": "0xC53E7008fE026Ab5871b06C42AD5E2086Ccb3dFd",
          "topics": [
            "0xddf252ad1be2c89b69c2b068fc378daa952ba7f163c4a11628f55a4df523b3ef",
            "0x0000000000000000000000009be14296c60cdb491e341db4192d165690d5226f",
            "0x000000000000000000000000129400290d9d20e2ff951683da847be7aec57be2"
          ],
          "data": "0x00000000000000000000000000000000000000000000003635c9adc5dea00000",
          "blockHash": "0x2615e3d5bbea2020855f883c24aa73dd36c169873eb91f2f38a7f9483f629be6",
          "blockNumber": "0x17c0e9",
          "transactionHash": "0x888b7dae4a05f1e2d56944f679defab009f9d53efda0001719ad2117d2686edb",
          "transactionIndex": "0x2",
          "logIndex": "0x4",
          "removed": false
        },
        {
          "address": "0x129400290d9d20e2Ff951683DA847be7aeC57Be2",
          "topics": [
            "0x7b6bd1e44b882fc3c6db03de18818ba27f347f200076803dce3e72303b0ca716",
            "0x00000000000000000000000024f6a729b094854f334162309485a0082b05dc4a"
          ],
          "data": "0x0000000000000000000000000000000000000000000000000000000005f5e10000000000000000000000000000000000000000000000003635c9adc5dea00000",
          "blockHash": "0x2615e3d5bbea2020855f883c24aa73dd36c169873eb91f2f38a7f9483f629be6",
          "blockNumber": "0x17c0e9",
          "transactionHash": "0x888b7dae4a05f1e2d56944f679defab009f9d53efda0001719ad2117d2686edb",
          "transactionIndex": "0x2",
          "logIndex": "0x5",
          "removed": false
        }
      ],
      "status": "0x1",
      "logsBloom": "0x00000000000000002000000000000000000000000000000000000080000000008000000000000000001000000000000000000000100000000000000100a02000000000000000000000000008010000020000000000000000000000010000000200000000000000000000000000000000000000000000000000000010000000000000200000000000100000000020020008000000000000000000000000000000020000000000008000000000000000000000000000000000000000000000000000004002000000000000000000000000000000000000000000000000000000000410020000200000000000000000000000000000000000000000000100000000",
      "type": "0x2",
      "effectiveGasPrice": "0xb2d05fdc"
    }
  ],
  "libraries": [],
  "pending": [],
  "returns": {},
  "timestamp": 1707800118,
  "chain": 168587773,
  "multi": false,
  "commit": "f941149"
}