{
  "transactions": [
    {
      "hash": "0xf578561078ce34d300ce6eb13eecbd6ff54bf24385906514e8964b4b5f9b2986",
      "transactionType": "CALL",
      "contractName": null,
      "contractAddress": "0x24f6A729B094854F334162309485A0082B05DC4a",
      "function": "approve(address,uint256)",
      "arguments": [
        "0x129400290d9d20e2Ff951683DA847be7aeC57Be2",
        "100000000"
      ],
      "transaction": {
        "type": "0x02",
        "from": "0x6d1206d66faa79e9fbd249b48aa55509071514a1",
        "to": "0x24f6a729b094854f334162309485a0082b05dc4a",
        "gas": "0x108c4",
        "value": "0x0",
        "data": "0x095ea7b3000000000000000000000000129400290d9d20e2ff951683da847be7aec57be20000000000000000000000000000000000000000000000000000000005f5e100",
        "nonce": "0x20",
        "accessList": []
      },
      "additionalContracts": [],
      "isFixedGasLimit": false
    },
    {
      "hash": "0x888b7dae4a05f1e2d56944f679defab009f9d53efda0001719ad2117d2686edb",
      "transactionType": "CALL",
      "contractName": null,
      "contractAddress": "0x129400290d9d20e2Ff951683DA847be7aeC57Be2",
      "function": "distribute(address,uint256,uint256)",
      "arguments": [
        "0x24f6A729B094854F334162309485A0082B05DC4a",
        "100000000",
        "0"
      ],
      "transaction": {
        "type": "0x02",
        "from": "0x6d1206d66faa79e9fbd249b48aa55509071514a1",
        "to": "0x129400290d9d20e2ff951683da847be7aec57be2",
        "gas": "0x28955",
        "value": "0x0",
        "data": "0xe2c92a5200000000000000000000000024f6a729b094854f334162309485a0082b05dc4a0000000000000000000000000000000000000000000000000000000005f5e1000000000000000000000000000000000000000000000000000000000000000000",
        "nonce": "0x21",
        "accessList": []
      },
      "additionalContracts": [],
      "isFixedGasLimit": false
    }
  ],
  "receipts": [],
  "libraries": [],
  "pending": [
    "0xf578561078ce34d300ce6eb13eecbd6ff54bf24385906514e8964b4b5f9b2986",
    "0x888b7dae4a05f1e2d56944f679defab009f9d53efda0001719ad2117d2686edb"
  ],
  "returns": {},
  "timestamp": 1707800110,
  "chain": 168587773,
  "multi": false,
  "commit": "f941149"
}